:020000040800F2
:10000000D00400209D010008571500084713000880
:1000100055150008E5010008AF1A000800000000AF
:100020000000000000000000000000007B15000838
:10003000E701000800000000791500087D150008A0
:10004000B7010008B7010008B7010008B7010008B0
:10005000B7010008B7010008B7010008B7010008A0
:10006000B7010008B7010008B7010008B701000890
:10007000B7010008B7010008B7010008B701000880
:10008000B7010008B7010008B7010008B701000870
:10009000B7010008B7010008B7010008B701000860
:1000A000B7010008B7010008B7010008B701000850
:1000B000B70100080000000000000000B7010008C0
:1000C000B7010008B7010008B701000800000000F0
:1000D000B7010008B7010008B7010008B701000820
:1000E000B7010008B7010008B701000800000000D0
:1000F0000000000000000000000000000000000000
:10010000000000000000000000000000B70100082F
:100110000000000000000000B7010008000000001F
:1001200000000000000000000000000000000000CF
:1001300000000000000000000000000000000000BF
:10014000B7010008B701000800000000000000002F
:10015000000000000000000000000000000000009F
:10016000B7010008B7010008B7010008B70100088F
:10017000B7010008000000000000000000000000BF
:1001800000000000B7010008DFF80CD000F018F8FC
:1001900000480047D11A0008D004002006488047D4
:1001A00006480047FEE7FEE7FEE7FEE7FEE7FEE75C
:1001B000FEE7FEE7FEE7FEE7F91500088901000803
:1001C000064C074D06E0E06840F0010394E80700A4
:1001D00098471034AC42F6D3FFF7DAFF841B0008CF
:1001E000A41B0008FEE770472DE9F84FDFF860B167
:1001F00000234FF0010C4FF0030A4FF00F090BF1F1
:10020000040E9DE00CFA03F6344022007ED04C68C8
:10021000022C01D0122C0ED1DC0800EB8408D8F897
:1002200020405D07EF0E09FA07F5AC430D69BD40AC
:100230002543C8F8205007685D0091F804800AFA49
:1002400005F408F00308A74308FA05F848EA070888
:10025000C0F800804F68012F05D0022F03D0112F66
:1002600001D0122F11D18768D1F80C80A74308FA6A
:1002700005F848EA0708C0F808804768B7430E79D0
:10028000C6F300169E403E434660C668A6438C688F
:10029000AC403443C4604C68E40050D52D4CA56993
:1002A00045F00105A561A46923F0030504F00104EC
:1002B0000094294C2E19B4689D072F0F09FA07F5F1
:1002C000AC43B0F1904F04D0244DA84203D1012596
:1002D0000CE000250AE0224DA84201D1022505E0EC
:1002E000204DA84201D1032500E00525BD4025434E
:1002F000B560DBF800405D464E689443F60300D5D8
:1003000014432C607546DEF8004000E017E04E68AC
:100310009443B60300D514432C600D4D08352C686A
:100320004E689443F60200D514432C60084D0C35FA
:100330002C684E689443B60200D514432C605B1CB5
:100340000A681446DA407FF45DAFBDE8F88F00001C
:100350000004014000100240000001400004004879
:1003600000080048000C0048014880687047000001
:1003700000000020024881680278114481607047C3
:1003800000000020074810B5016841F0100101602D
:10039000032000F089F8002000F006F800F024F8AF
:1003A000002010BD0020024070B50D4D04464FF4F2
:1003B0007A712878B1FBF0F00A490968B1FBF0F0D6
:1003C00000F02DFD48B9102C07D200222146501E06
:1003D00000F04AF800206C6070BD012070BD000084
:1003E000000000200C0000201E4808B5816941F083
:1003F00001018161816901F001010091C16941F050
:100400008051C161C06900F080500090032000F06D
:100410004BF8002211466FF00B0000F025F8002287
:1004200011466FF00A0000F01FF8002211466FF02D
:10043000090000F019F800221146501F00F014F8CE
:1004400000221146101F00F00FF800221146901EE6
:1004500000F00AF80022BDE808401146501E00F0E6
:1004600003B8000000100240F0B40E4B1B680C46AD
:10047000C3F30223C3F10705042D00D90425191D78
:10048000072901D2002300E0DB1E012606FA05F150
:10049000491E214099409E40761E16403143F0BCD3
:1004A00001F05AB80CED00E0064900F007020868B8
:1004B0004FF6FF03184040EA0220034A1043086049
:1004C000704700000CED00E00000FA052DE9F84F40
:1004D00005460068774CC0036FD5E0690026C00070
:1004E00008D4E06940F08050E061E069012600F046
:1004F0008050009070480168C90512D40168804698
:1005000041F480710160FFF72FFF074605E000BF4F
:10051000FFF72AFFC01B642835D8D8F80000C005B3
:10052000F6D5206A10F4407053D0A98801F44071C8
:1005300081424ED0206A4FF4803191FAA1F2B2FA92
:1005400082F297005D4A4FF00108174420F4407092
:10055000C7F8008491FAA1F1B1FA81F102EB8101AF
:100560000023C1F800342062C00732D0FFF7FCFE40
:10057000074641F2883A4FF0020907E0FFF7F4FE20
:10058000C11B514502D90320BDE8F88F99FAA9F1A2
:10059000B1FA81F141F040014846B8EB511F01D159
:1005A00021680CE090FAA0F1B1FA81F141F040012C
:1005B000B0EB511F02D1216A01E015E0616A99FA9E
:1005C000A9F0B0FA80F000F01F0008FA00F2114222
:1005D000D4D0206A696820F44070084320621EB1BC
:1005E000E06920F08050E0612878C00705D0206BDA
:1005F000A96820F00300084320632878800605D509
:10060000206BE96820F0100008432063286880030D
:1006100005D56068296B20F4800008436060287865
:10062000400605D5206B296920F02000084320638F
:100630002888000405D5206B696920F04000084334
:1006400020632888800505D56068E96920F40000EA
:10065000084360602878000605D5E06AA96920F49F
:10066000F8700843E0622888C00405D5206B296A29
:1006700020F48070084320632868400305D5206B70
:10068000696A20F48060084320632868000305D568
:10069000206BA96A20F40060084320632868C00228
:1006A00005D5206BE96A20F4005008432063002040
:1006B0006AE7000000100240007000400000424263
:1006C0002DE9F0470F46050069D04A4E306800F02A
:1006D0000700B84209D2306820F007003843306084
:1006E000306800F00700B84259D12878424C8007A2
:1006F00005D56068A96820F0F0000843606028789C
:10070000C0073DD06968012001290DD0022923D0FE
:100710005FF0020393FAA3F2B2FA82F242F02002EF
:10072000520904D0226803E04FF40033F2E7626A12
:1007300093FAA3F3B3FA83F303F01F039840024242
:100740002DD0606820F0030008436060FFF70CFEC6
:10075000804641F288390CE04FF00073DAE700BFC1
:10076000FFF702FEA0EB0801494502D90320BDE8CE
:10077000F0876068696800F00C00B0EB810FEFD182
:10078000306800F00700B8420BD9306820F007004D
:1007900038433060306800F00700B84201D00120D3
:1007A000E5E72878400705D56068E96820F4E0604F
:1007B000084360602878000706D56068296920F43E
:1007C000605040EAC100606000F022F86168F022E9
:1007D00092FAA2F201F0F001B2FA82F2D140074A95
:1007E000515CC840064908600020FFF7DDFD00208D
:1007F000BDE700000020024000100240741B00080A
:100800000C00002001480068704700000C00002028
:10081000144B10B55A68144802F00C0104291DD07D
:1008200008291BD14FF4701494FAA4F402F4701147
:10083000B4FA84F4E1400D4CDB6A615C0F2494FA55
:10084000A4F403F00F03B4FA84F4E340074C10342B
:10085000D203E35C03D5B0FBF3F0484310BD04487A
:10086000484310BD0010024000127A00541B0008DB
:1008700000093D002DE9F84F040071D02078FB4DB0
:10088000C0074FF0010625D068687704C0F38100E7
:10089000012807D06868C0F3810002281BD168686E
:1008A000C00318D597FAA7F0B0FA80F040F0200006
:1008B000400901D0286800E0686A97FAA7F1B1FA08
:1008C00081F101F01F0106FA01F1084265D060686C
:1008D0000028D2D061E06068B0F5803F0BD010B145
:1008E000B0F5A02F17D0286820F480302860286841
:1008F00020F4802002E0286840F480302860E86A14
:10090000A16820F00F000843E862606820B3FFF799
:100910002BFD80460AE0286840F480202860EAE742
:10092000FFF722FDA0EB0800642872D897FAA7F021
:10093000B0FA80F040F02000400901D0286800E0C3
:10094000686A97FAA7F1B1FA81F101F01F0106FA7E
:1009500001F10842E4D020E0FFF706FD804607E001
:10096000C7E000BFFFF700FDA0EB08006428DCD85B
:1009700097FAA7F0B0FA80F040F02000400901D0CB
:10098000286800E0686A97FAA7F1B1FA81F101F0EE
:100990001F0106FA01F10842E4D12078DFF8D08285
:1009A00080074FF0000A4FF0020759D568684FF0F2
:1009B000F80B10F00C0F07D06868C0F38100022814
:1009C0001BD16868C00318D497FAA7F0B0FA80F07A
:1009D00040F02000400901D0286800E0686A97FADA
:1009E000A7F1B1FA81F101F01F0106FA01F1084205
:1009F0002BD0206901287CD127E0206988B396FAA2
:100A0000A6F0B0FA80F048F82060FFF7ADFC814610
:100A100006E055E1FFF7A8FCA0EB0900022884D806
:100A200097FAA7F0B0FA80F040F02000400901D01A
:100A3000286800E0686A97FAA7F1B1FA81F101F03D
:100A40001F0106FA01F10842E4D028689BFAABF2D4
:100A50006169B2FA82F220F0F80091400843286000
:100A600025E0FFE796FAA6F1B1FA81F148F821A056
:100A7000FFF77AFC814605E0FFF776FCA0EB090062
:100A80000228CCD897FAA7F0B0FA80F040F0200006
:100A9000400901D0286800E0686A97FAA7F1B1FA26
:100AA00081F101F01F0106FA01F10842E4D120783A
:100AB00000076AD5A069A0B396FAA6F0B0FA80F054
:100AC00008EB8000C0F88064FFF74EFC814605E02B
:100AD000FFF74AFCA0EB09000228A0D897FAA7F07C
:100AE000B0FA80F040F06000B6EB501F02D12868E9
:100AF0000CE077E197FAA7F0B0FA80F040F06000E0
:100B0000B7EB501F01D1286A00E0686A97FAA7F195
:100B1000B1FA81F101F01F0106FA01F21042D7D0BB
:100B200033E0FFE796FAA6F0B0FA80F008EB800019
:100B3000C0F880A4FFF718FC814605E0FFF714FC1D
:100B4000A0EB090002289CD897FAA7F0B0FA80F031
:100B500040F06000B6EB501F01D128680BE097FA17
:100B6000A7F0B0FA80F040F06000B7EB501F01D161
:100B7000286A00E0686A97FAA7F1B1FA81F101F0FA
:100B80001F0106FA01F21042D8D12078400774D52F
:100B9000E8694FF00009C00009D4E86940F08050CE
:100BA000E861E8694FF0010900F080500090314899
:100BB0000168C90512D4016841F480710160FFF732
:100BC000D3FB834606E000BFFFF7CEFBA0EB0B0094
:100BD000642875D827480068C005F5D5E068012865
:100BE0000AD008B1052811D0286A20F00100286237
:100BF000286A20F0040002E0286A40F00100286220
:100C0000E068C8B3FFF7B0FB83460DE0286A40F008
:100C100004002862F0E700BFFFF7A6FBA0EB0B0182
:100C200041F2883081424BD897FAA7F0B0FA80F0B1
:100C300040F04000B6EB501F01D128680BE097FA56
:100C4000A7F0B0FA80F040F04000B7EB501F01D1A0
:100C5000286A00E0686A97FAA7F1B1FA81F101F019
:100C60001F0106FA01F21042D6D035E00010024012
:100C7000000042420070004000E034E0FFF774FBE7
:100C8000834607E0FFF770FBA0EB0B0141F28830D1
:100C9000814215D897FAA7F0B0FA80F040F04000F2
:100CA000B6EB501F01D128680CE097FAA7F0B0FA14
:100CB00080F040F04000B7EB501F02D1286A01E0FD
:100CC00083E0686A97FAA7F1B1FA81F101F01F0198
:100CD00006FA01F21042D5D1B9F1000F03D0E8694C
:100CE00020F08050E861E06980B36968C1F3810158
:100CF000022977D04FF080714F00022809D091FA75
:100D0000A1F0B0FA80F048F820A0FFF72DFB0446D0
:100D10005EE050468A4691FAA1F1B1FA81F1C146EE
:100D200048F82100FFF720FB804605E0FFF71CFB99
:100D3000A0EB0800022848D897FAA7F0B0FA80F094
:100D400040F02000400902D0286801E056E0686ABF
:100D500097FAA7F1B1FA81F101F01F0106FA01F14A
:100D60000842E3D1D4E908100843696821F47411FA
:100D7000084368609AFAAAF0B0FA80F049F8206057
:100D8000FFF7F2FA044604E0FFF7EEFA001B022830
:100D90001BD897FAA7F0B0FA80F040F02000400985
:100DA00001D0286800E0686A97FAA7F1B1FA81F1EA
:100DB00001F01F0106FA01F10842E5D01EE000BF74
:100DC000FFF7D2FA001B022802D90320BDE8F88FF2
:100DD00097FAA7F0B0FA80F040F02000400902D066
:100DE000286801E00CE0686A97FAA7F1B1FA81F18E
:100DF00001F01F0106FA01F10842E1D10020E5E708
:100E00000120E3E74FF0E0210428086903D020F037
:100E100004000861704740F00400FAE7704710B51D
:100E2000401EB0F1807F01D3012010BD4FF0E024BF
:100E300060610F21601700F08FFB0020A061072088
:100E40002061002010BD10B5FFF7E8FF10BD0000C5
:100E500030B590F83C20012A3AD0012280F83C209D
:100E6000CA688C6822F4407222434C6822F4806283
:100E700022430C6822F4006222430C6922F480525F
:100E800022434C6922F4005222438C6A22F48042AD
:100E9000224322F4004222430C8B22F4702242EAC5
:100EA00004420C4D04680023AC420CD18D8C22F41A
:100EB000700242EA0552CD6922F080722A43096A23
:100EC00022F000720A43626480F83C30002030BD9A
:100ED000022030BD002C014030B590F83C20012AA2
:100EE0001CD0012280F83C2003685A689C680C4D95
:100EF000AB4203D122F470054A682A4322F0700500
:100F00000A6889682A4324F0800421435A600268F1
:100F10009160002180F83C10084630BD022030BDB1
:100F2000002C014010B504460068042200F0DFFBED
:100F30002068416C41F4004141642068016841F03F
:100F400001010160002010BD10B5040003D094F829
:100F50003D0010B107E0012010BD002084F83C00E6
:100F6000204600F00DF8022084F83D00211D206885
:100F700000F076FB012084F83D00002010BD000049
:100F800008B5124A01681248914207D1816941F4BB
:100F900000618161806900F4006014E0B1F1804F6C
:100FA0000AD00C4A91420FD1816941F480318161AC
:100FB000806900F4803006E0C16941F00101C1613F
:100FC000C06900F00100009008BD0000002C014045
:100FD000001002400040014070B5044690F83C000B
:100FE000012817D0012584F83C50022084F83D00E8
:100FF00022689068364E304020F47F409060086848
:10100000502839D00DDC20285BD005DC98B310289F
:1010100043D153E0022070BD302855D040283CD148
:1010200041E0602830D070280CD0B0F5805F03D04C
:10103000B0F5005F31D112E020688168244A703237
:10104000114016E0CB68D1E90121206800F05AFB7D
:1010500021688868304040F0770088601DE0CB68E8
:10106000D1E90121206800F04DFB2068816841F43E
:101070008041816011E01EE0CA684968206800F084
:10108000F3FC5021206806E0CA684968206800F037
:10109000FCFC6021206800F03FFB84F83D500020FC
:1010A00084F83C0070BDCA684968206800F0DCFC28
:1010B00040212068EFE700212068ECE7102120683C
:1010C000E9E720212068E6E730212068E3E7000017
:1010D00088FFFEFFF0B500681C49002401260225A8
:1010E0001B4F85B0884208D10096CDE901540620F7
:1010F000CDE903406946384624E04FF09042B0F114
:10110000804F0CD0134988421ED108200090CDE9B1
:1011100001540920CDE903406946104612E0202021
:101120000090CDE90154CDE9034669461046FFF72A
:101130005BF84FF480600090CDE90154CDE903469F
:1011400069463846FFF750F805B0F0BD002C014065
:10115000000400480040014070B5044690F83C008F
:101160000D4601280ED0012684F83C60022084F848
:101170003D000C2A45D007DC5AB1042A1BD0082AAE
:1011800078D12CE0022070BD102A4ED0142A71D1E3
:101190005DE0206800F0C8FA2068816941F008012C
:1011A00081612068816921F0040181612068816981
:1011B0002A69114311E0206800F0FAFA2068816979
:1011C00041F4006181612068816921F4806181615D
:1011D000206881692A6941EA022181614AE0206828
:1011E00000F026FB2068C16941F00801C161206858
:1011F000C16921F00401C1612068C1692A691143F4
:1012000011E0206800F054FB2068C16941F40061DE
:10121000C1612068C16921F48061C1612068C16930
:101220002A6941EA0221C16124E0206800F076FBCE
:101230002068416D41F0080141652068416D21F051
:10124000040141652068416D2A69114311E020685D
:1012500000F096FB2068416D41F400614165206813
:10126000416D21F4806141652068416D2A6941EA40
:101270000221416584F83D60002084F83C0070BD87
:1012800010B5040003D094F83D0010B107E0012030
:1012900010BD002084F83C00204600F00CF802202D
:1012A00084F83D00211D206800F0DAF9012084F85F
:1012B0003D00002010BD704710B5044600680122B3
:1012C00000F00AFA0B482168814208D00A4881429E
:1012D00005D00A48814202D00948814203D1486CB6
:1012E00040F4004048642068016841F00101016059
:1012F000002010BD002C014000400140004401408E
:101300000048014070B5044690F83C00012818D010
:10131000012584F83C50022084F83D00204600F06E
:1013200063FB2068C16821F04001C1602068C1688A
:1013300021F48041C16084F83D50002084F83C00D5
:1013400070BD022070BDFEE710B52D489EB02B4940
:10135000016004210024C0E901144F21C0E90314F5
:1013600044618461FFF7F0FD00B1FEE74FF4805067
:101370001A901AA92248FFF72FFE00B1FEE7204875
:10138000FFF77EFF00B1FEE70620CDE9120412A9A7
:101390001B48FFF7B7FF00B1FEE710201790802031
:1013A000199017A91648FFF797FD00B1FEE76020D6
:1013B0000B9027200C900220CDE90D040F9410947F
:1013C00004220BA90E481194FFF7C6FE00B1FEE7F8
:1013D00000944FF40050CDE904400194029403942A
:1013E0000694694606480A94FFF732FD00B1FEE70D
:1013F0000348FFF76FFE1EB010BD00000040014023
:101400009000002010B52E489EB02C4901600421A8
:101410000024C0E901144F21C0E903144461846130
:10142000FFF792FD00B1FEE74FF480501A901AA921
:101430002348FFF7D1FD00B1FEE72148FFF720FF69
:1014400000B1FEE70620CDE9120412A91C48FFF7FF
:1014500059FF00B1FEE71794189417A9184819947A
:10146000FFF73AFD00B1FEE760200B902720CDE9A1
:101470000C040820CDE90E04109404220BA9104896
:101480001194FFF769FE00B1FEE700944FF400509D
:10149000CDE9044001940294039400030694CDE93D
:1014A00007400994694606480A94FFF7D1FC00B149
:1014B000FEE70348FFF70EFE1EB010BD002C0140F2
:1014C0001000002030B522488FB04FF080410160FD
:1014D00004210024C0E9011480254F218561C0E961
:1014E0000314FFF731FD00B1FEE74FF480500A907E
:1014F0000AA91748FFF770FD00B1FEE71448FFF78F
:10150000BFFE00B1FEE71020079007A9099510481B
:10151000FFF7E2FC00B1FEE7602000902720CDE954
:101520000104002269460A480494FFF715FE00B141
:10153000FEE702200290082269460548FFF70CFEEC
:1015400000B1FEE70248FFF7C5FD0FB030BD000057
:1015500050000020FEE770470907090E002806DA50
:1015600000F00F0000F1E02080F8141D704700F13A
:10157000E02080F8001470477047704710B5FEF700
:10158000F9FEBDE81040FFF75EBC30B59DB0012507
:101590002804CDE90D5000240DA811951494FFF7EF
:1015A00069F900B1FEE70F20CDE9185417901A949D
:1015B000002117A81B94FFF783F800B1FEE74FF452
:1015C00082200090089409946846FEF77FFF00B1DE
:1015D000FEE7FFF717F94FF47A71B0FBF1F0FFF770
:1015E0001EFC0420FFF70EFC00221146501EFEF7E1
:1015F0003BFF1DB030BD00001448016841F470018C
:1016000001601348016841F0010101604168114A1D
:10161000114041600168104A11400160016821F4E5
:1016200080210160416821F4FE014160C16A21F01E
:101630000F01C162016B094A114001630021816001
:101640000249C003803908607047000088ED00E05F
:10165000001002400CC07FF8FFFFF6FECCFC00FF3C
:10166000F0B50268184B4FF08047984201D0B8425D
:1016700003D122F070044A682243144C144D154ED5
:10168000984207D0B84205D0A04203D0A84201D06A
:10169000B04203D122F44077CA683A434F6922F03E
:1016A00080023A4302608A68C2620A688262984293
:1016B00005D0A04203D0A84201D0B04201D10969AF
:1016C000016301214161F0BD002C01400040014057
:1016D000004401400048014010B50123046A8B40DA
:1016E0009C430462036A8A401343036210BD10B531
:1016F0000423046A8B409C430462036A8A401343B8
:10170000036210BD10B5846842EA032224F47F44CA
:101710000A432243826010BD826822F070020A43AD
:1017200042F0070181607047F0B5026A22F00102C1
:101730000262056A43688269184C25F0020522405E
:101740000C6822F0030214438A68164E2A43144D93
:10175000154FDFF858C0A84205D0B04203D0B842B8
:1017600001D0604506D122F0080ECA6842EA0E0296
:1017700022F00402A84205D0B04203D0B84201D002
:10178000604505D14D6923F440731D438B692B439C
:1017900043608461496841630262F0BD8FFFFEFFD0
:1017A000002C01400040014000440140004801403D
:1017B00030B5026A22F010020262046A426883694C
:1017C000164D2B400D6823F4407343EA052524F0A1
:1017D00020038C6843EA0413114CA04207D1CC6863
:1017E00023F0800343EA041323F0400308E00D4C88
:1017F000A04205D00C4CA04202D00C4CA04207D114
:101800004C6922F4406242EA84028C6942EA840212
:101810004260856149688163036230BDFF8FFFFECE
:10182000002C0140004001400044014000480140BC
:1018300030B5026A22F480720262046A4268C369A7
:10184000164D2B400D6823F003031D4324F4007351
:101850008C6843EA0423124CA04207D1CC6823F4DD
:10186000006343EA042323F4806308E00D4CA042A4
:1018700005D00D4CA04202D00C4CA04207D14C69BF
:1018800022F4405242EA04128C6942EA0412426095
:10189000C5614968C163036230BD00008FFFFEFF70
:1018A000002C01400040014000440140004801403C
:1018B00030B5026A22F480520262046A4268C36947
:1018C000114D24F400542B400D6823F4407343EA77
:1018D00005238D6844EA05340C4DA84208D00C4D10
:1018E000A84205D00B4DA84202D00B4DA84204D10E
:1018F0004D6922F4804242EA85124260C361496820
:101900000164046230BD0000FF8FFFFE002C014027
:1019100000400140004401400048014030B5026AE7
:1019200022F480320262046A4268436D0F4D2B40FC
:101930000D681D4324F400330C8943EA04430C4C26
:10194000A04208D00B4CA04205D00B4CA04202D0C4
:101950000A4CA04204D14C6922F4803242EA0422AB
:101960004260456549688165036230BD8FFFFEFFB7
:10197000002C01400040014000440140004801406B
:1019800030B5026A22F480120262046A4268436D32
:10199000104D24F400142B400D6843EA05230D89F3
:1019A00044EA05540C4DA84208D00C4DA84205D07D
:1019B0000B4DA84202D00B4DA84204D14D6922F430
:1019C000802242EA8522426043654968C16504621B
:1019D00030BD0000FF8FFFFE002C014000400140A1
:1019E000004401400048014030B40468A26822F07D
:1019F00070034A681A431B4B1A400B681343A360D9
:101A00004A6812F00F0F1FD11211082A1CD2DFE80A
:101A100002F01B1B1B1B0B1D23040B69D1E90221C8
:101A2000006830BCFFF76EBE0268136A146A24F0C7
:101A30000104146202689469096924F0F00444EA1C
:101A4000011191610068036230BC70470A698968BE
:101A5000006830BC00F008B80A698968006830BCCA
:101A600000F013B8F8FFFEFF10B5036A046A24F013
:101A700001040462846924F0F00444EA021423F0AF
:101A80000A020A438461026210BD10B5036A23F0A2
:101A9000100303628369046A23F4704343EA023249
:101AA00024F0A00343EA01118261016210BDFEE748
:101AB00002E008C8121F08C1002AFAD17047704717
:101AC000002001E001C1121F002AFBD17047000075
:101AD00008B5FEF757FCFFF758FD1C48416941F473
:101AE00080014161416901F480010091416941F443
:101AF00000314161416901F400310091416941F4D3
:101B000080214161406900F480200090FFF77AFC59
:101B1000FFF7D8FCFFF718FC00210D48FFF7CCFBBE
:101B200008210B48FFF7C8FB094804214030FFF7A4
:101B3000C3FB074804214038FFF7F4F90448006864
:101B4000016841F001010160FEE700000010024061
:101B50005000002002030405060708090A0B0C0DBB
:101B60000E0F10100102030405060708090A0B0CEA
:101B70000D0E0F1000000000000000000102030421
:101B800006070809A41B0008000000201000000040
:101B9000B01A0008B41B000810000020C0040000A8
:101BA000C01A000801000000100000000000000042
:041BB00000127A00A5
:040000050800018965
:00000001FF
