:020000040800F2
:10000000680500209D01000849300008252D0008E2
:1000100045300008050800081F36000800000000F1
:100020000000000000000000000000008730000811
:1000300061080008000000008530000889300008D1
:10004000B7010008B7010008B7010008B7010008B0
:10005000B7010008B7010008B7010008B7010008A0
:10006000B7010008B7010008B70100080908000837
:10007000B7010008B7010008B7010008B701000880
:10008000B7010008B7010008B7010008B701000870
:10009000B7010008B7010008B7010008B701000860
:1000A000B7010008B7010008B7010008B701000850
:1000B000B70100080000000000000000B7010008C0
:1000C000B7010008B7010008B701000800000000F0
:1000D000B7010008B7010008B7010008B701000820
:1000E000B7010008B7010008B701000800000000D0
:1000F0000000000000000000000000000000000000
:10010000000000000000000000000000B70100082F
:100110000000000000000000B7010008000000001F
:1001200000000000000000000000000000000000CF
:1001300000000000000000000000000000000000BF
:10014000B7010008B701000800000000000000002F
:10015000000000000000000000000000000000009F
:10016000B7010008B7010008B7010008B70100088F
:10017000B7010008000000000000000000000000BF
:1001800000000000B7010008DFF80CD000F056FABC
:1001900000480047453600086805002006488047AB
:1001A00006480047FEE7FEE7FEE7FEE7FEE7FEE75C
:1001B000FEE7FEE7FEE7FEE72931000889010008B7
:1001C000202A04DB203A21FA02F00021704721FAAC
:1001D00002F3D040C2F12002914008431946704713
:1001E0002DE9FE4F804681EA0300C00F0C460090C7
:1001F00021F0004123F00045B8EB0200A94105D2EF
:100200004046214690461C460B46024623F00040DD
:10021000104347D0270DC7F30A00C3F30A510290D9
:10022000401A019040286BDAC3F3130040F4801B9E
:100230000098924620B10023D2EB030A63EB0B0B2C
:1002400001985946C0F14002504600F041F9064677
:100250000D4650465946019A00F049F910EB080046
:100260006141002487EA115284EAE7731A4340D0BF
:10027000009A62B3019A012A4FEA075215DC001B6B
:1002800061EB02014FF0004202EA0752CDE9004261
:10029000001C41F5801132462B4600F080F903B076
:1002A000BDE8F08F40462146F9E7001B61EB0201F3
:1002B000001C41F5801300185B412018A2F50017BF
:1002C00047EB030140EAD570B6196D4111E06D08A6
:1002D0004FEA360645EAC0754FEA0752001B61EB4C
:1002E0000201001C41F5801149084FEA3000001955
:1002F000514132462B4603B0BDE8F04F00F040B903
:100300000098012240000023D0EB020263EBE0736F
:10031000009821464FEAE074B8EB000061EB04015D
:10032000E9E783F000435BE781F0004158E72DE9FE
:10033000FE4F81EA030404F0004421F000410094E0
:100340004FF0000B23F0004350EA01045ED052EA64
:1003500003045BD0C3F30A54C1F30A552C44A4F23E
:10036000F3340194A0FB0254C1F3130141F4801152
:10037000C3F3130343F4801301FB024400FB034E59
:10038000840A970A44EA815447EA8357A4FB076822
:1003900002958D0A05FB07854FEA932C04FB0C544C
:1003A0002705029D4FEA065847EA1637B5EB0805C0
:1003B0006EEB070C870E920E47EA811742EA831212
:1003C000A7FB0201B6EB0B0164EB00042B0D43EA23
:1003D0000C335E1844EB1C50DA465146E7FB020131
:1003E000C5F313044FEA0B3343EA14534FEA0432C4
:1003F000019C43EA0603A4F10C040294009CCDE99D
:1004000000B400F0CCF803B0BDE8F08F0020014646
:10041000F9E700F0004230F000400AD0C10D01F5CC
:100420006071C0F3160042EA0151C208400711434F
:10043000704700200146704730B5041E71F100047A
:1004400004DB4FF00044404264EB0101141E73F1E1
:10045000000405DB1C464FF00043524263EB0403EB
:100460008B4208BF824230BD30B5041E71F10004DA
:1004700004DB4FF00044404264EB0101141E73F1B1
:10048000000405DB1C464FF00043524263EB0403BB
:10049000994208BF904230BD01F0004330B421F0D2
:1004A000004150EA010206D00A0DA2F56072C1F3C4
:1004B0001301002A02DC30BC00207047440F44EADC
:1004C000C104C100E01830BC00EBC25000F021B8FC
:1004D000202A04DB203A00FA02F100207047914004
:1004E000C2F1200320FA03F3194390407047202AF9
:1004F00006DBCB17203A41FA02F043EAE07306E04C
:1005000041FA02F3D040C2F120029140084319465B
:1005100070470029A8BF7047401C490008BF20F061
:100520000100704710B4B0FA80FC00FA0CF050EAF9
:10053000010404BF10BC704749B1CCF1200421FA7A
:1005400004F411FA0CF118BF012121430843A3EB75
:100550000C01CB1D4FEA00614FEA102042BF002082
:1005600010BC704700EBC35010440029A4BF10BC5E
:100570007047401C490008BF20F0010010BC7047C4
:1005800010B5141E73F1000408DA401C41F100019B
:1005900092185B411A4301D120F0010010BD2DE9F2
:1005A000F04D92469B4611B1B1FA81F202E0B0FAE9
:1005B00080F220329046FFF78BFF04460F4640EA58
:1005C0000A0041EA0B0153465A46084313D011462C
:1005D00053EA010019D0C8F140025046FFF7F0FD80
:1005E00005460E46504659464246FFF771FF0843FE
:1005F00005D0012004E020463946BDE8F08D0020FA
:10060000054346EAE0762C4337430A986305E40A3B
:10061000A0EB08000022FD0A44EA47540A3002D544
:1006200000200146E9E7010510196941DDE90845A7
:1006300000196941BDE8F04DA2E70000064C074DE6
:1006400006E0E06840F0010394E8070098471034A2
:10065000AC42F6D3FFF79CFD183900083839000882
:1006600070B505466C6A606C00F05000D0B9606CE3
:1006700040F4007060642068C06800F4406068B9AD
:10068000E06958B9606C20F480706064606C00F4BC
:10069000805018B9606C40F001006064204600F0A2
:1006A000E3FA03E0E06B016B2846884770BD70B544
:1006B00005466C6A606C40F040006064A06C40F0DD
:1006C0000400A064204600F06EFB70BD70B50446C7
:1006D000656A284600F066FB70BD70B504460025CB
:1006E0002068806800F00300012806D120680068B7
:1006F00000F0010008B1012000E0002080B3206874
:10070000806800F00D00012800D100E0002050B109
:1007100000BF2068806840F00200216888600320E4
:100720002168086009E0606C40F010006064A06C13
:1007300040F00100A064012070BD00F00FFF0546ED
:100740000FE000F00BFF401B02280AD9606C40F05C
:1007500010006064A06C40F00100A0640120EBE791
:1007600005E02068806800F001000028E9D1002041
:10077000E2E7000070B5044600252068806800F0BC
:100780000300012806D12068006800F0010008B1CC
:10079000012000E0002088BB2068806818490840DC
:1007A00008B9012000E0002048B9606C40F010005A
:1007B0006064A06C40F00100A064012070BD20685E
:1007C000806840F001002168886000F0C7FE05469F
:1007D0000EE000F0C3FE401B022809D9606C40F017
:1007E00010006064A06C40F00100A0640120E5E707
:1007F0002068006800F001000028EAD00020DDE752
:100800003F00008000BFFEE710B5024800F0C6FCC4
:1008100010BD0000A0000020054A0168891A1422BA
:10082000B1FBF2F18900016401490839C1637047E5
:100830000800024030B590F840500124AC40C56B30
:100840006C60046863604468102C04D10468A26082
:100850000468E16003E00468A1600468E26030BD00
:1008600070470000F0B596B00246002500200090C9
:10087000C868012800D000E000BF00BF92F8400027
:10088000012802D1022016B0F0BD012082F84000FC
:1008900000BF10688068C0F38000002879D14868E4
:1008A000052812D21068006B0E7906EB4606770019
:1008B0001F26BE40B0430F7907EB47077F000E6845
:1008C000BE4030431668306343E048680A2814D2BB
:1008D0001068406B0E79761F06EB460677001F26E0
:1008E000BE40B0430F797F1F07EB47077F000E68BC
:1008F000BE403043166870632BE048680F2814D25E
:100900001068806B0E790A3E06EB460677001F26BC
:10091000BE40B0430F790A3F07EB47077F000E68E0
:10092000BE4030431668B06313E01068C06B0E79A8
:100930000F3E06EB460677001F26BE40B0430F79F8
:100940000F3F07EB47077F000E68BE403043166835
:10095000F0631068806800F00C0008B1012000E02E
:100960000020002870D108680A2813D31068806915
:100970000E780A3E06EB46070726BE40B0430F78C6
:100980000A3F07EB47078E68BE4030431668B061E8
:1009900010E055E1106840690E7806EB460707261F
:1009A000BE40B0430F7807EB47078E68BE40304328
:1009B0001668706148691668F668C6F3C106760065
:1009C00000FA06F40869012806D0022812D003288C
:1009D0001ED0042839D129E01068006E9E4E3040A8
:1009E0000E784FF0004747EA866626433043166884
:1009F000306663E01068406E974E30400E784FF0DE
:100A0000004747EA8666264330431668706655E01D
:100A10001068806E904E30400E784FF0004747EAE5
:100A20008666264330431668B06647E01068C06E9D
:100A3000894E30400E784FF0004747EA86662643DD
:100A400030431668F06639E039E01068006E00F057
:100A5000F8400E78B0EB866F05D11068006E20F07C
:100A60000040166830661068406E00F0F8400E785E
:100A7000B0EB866F05D11068406E20F0004016681C
:100A800070661068806E00F0F8400E78B0EB866FEC
:100A900005D11068806E20F000401668B0661068BE
:100AA000C06E00F0F8400E78B0EB866F05D110688C
:100AB000C06E20F000401668F06600BF00BF1068EE
:100AC000806800F00300012806D11068006800F07B
:100AD000010008B1012000E00020002876D1C8689C
:100AE00001280AD01068D0F8B0000F780126BE4067
:100AF000B0431668C6F8B00032E01068D0F8B00015
:100B00000F780126BE4030431668C6F8B00008686A
:100B10000A2813D3106886690878093800EB400763
:100B20000720B84026EA00000E78093E06EB46068C
:100B30008F68B74038431668B06111E010684069AB
:100B40000E78761C06EB46070726BE40B0430F78AA
:100B50007F1C07EB47078E68BE4030431668706104
:100B60003E4B0868102803D1986800F4000068B173
:100B70000868112803D1986800F0807030B10868C7
:100B8000122862D1986800F48000F8B90020019022
:100B90001068806800F00300012806D11068006822
:100BA00000F0010008B1012000E00020C8BB01985E
:100BB00078B10198806800F00300012807D10198FE
:100BC000006800F0010010B1012001E031E00020D8
:100BD00038BB0868102818D11068B0F1A04F14D1A4
:100BE000986840F4000098601D4800681D4EB0FBF6
:100BF000F6F000EB80004000009002E00098401EFC
:100C0000009000980028F9D11FE00868112809D148
:100C10001068B0F1A04F05D1986840F080709860DE
:100C200013E007E0086812280FD1986840F48000AC
:100C300098600AE0506C40F020005064012504E008
:100C4000506C40F020005064012500BF002082F865
:100C5000400000BF284616E600F0FF830003005066
:100C60003400002040420F0070B52DED048B054686
:100C70003C4890ED000AB8EE400ADFED3B0A80EEFA
:100C8000201A9FED3A0A21EE000A394880ED000A49
:100C9000344890ED010AB8EE400ADFED330A80EEE9
:100CA000201A9FED320A21EE000A10EE104A20466B
:100CB000FFF7AFFB41EC190B9FED2E0B53EC102B04
:100CC000FFF735FB41EC180BFFF7E6FB2B490860FB
:100CD000244890ED020AB8EE400A9FED231AC0EEB8
:100CE000010A9FED220A20EE800A10EE104A2046EB
:100CF000FFF78FFB41EC190B9FED210B53EC102BF1
:100D0000FFF715FB41EC180BFFF7C6FB1E49086007
:100D10001748D0ED000A9FED1D0A9FED1D1A01EE48
:100D2000200A1C4880ED000A1B4890ED000A194873
:100D3000D0ED000A30EE200A174880ED000A17486F
:100D400090ED000A0D48D0ED000A30EE200A13485D
:100D500080ED000A12480068401C11490860BDEC93
:100D6000048B70BD38000020000080456666664038
:100D700000000020000000000000084008000020E3
:100D800000000000000026401400002052499D3A57
:100D9000083D1B3D040000200C0000201000002036
:100DA0001C00002070477047F0B597B0044600263D
:100DB00000250020019014B9012017B0F0BD206972
:100DC00010B1606A00B100BF606C00F01000002834
:100DD00053D1606C98BB0020A06400212165E064C1
:100DE00084F84000204600F0FDF82068806800F09C
:100DF000805020BB2046FFF770FC0646606C00F078
:100E00001000E0B9DEB9606C20F4885040F00200B8
:100E100060642068806820F0405021688860206805
:100E2000806840F08050216888606A4800686A499C
:100E3000B0FBF1F000EB80004000019003E005E022
:100E40000198401E019001980028F9D1206880681F
:100E500000F0805030B12068806800F00050B0F1A0
:100E6000005F0AD1606C20F0020040F01000606466
:100E7000A06C40F00100A0640126606C00F010003E
:100E800000287DD1002EFCD120688068C0F380004E
:100E90000028F6D1606C20F4807040F0020060649D
:100EA0004E4F002002902068806800F00300012867
:100EB00006D12068006800F0010008B1012000E0C0
:100EC0000020B0B9029870B10298806800F0030069
:100ED000012806D10298006800F0010008B1012045
:100EE00000E0002028B9B86820F440306168084369
:100EF000B860A06B012802D04FF4805100E00021BF
:100F0000E06941EA4030E1680843A16808430543CD
:100F1000606A012813D1E06938B9208D401E4FF472
:100F2000803141EA4040054309E0606C20F0020056
:100F300040F020006064A06C40F00100A064E06A12
:100F4000012803D0D4E90B010843054320688068D9
:100F500000F00C0008B1012000E0002060B920681A
:100F6000C06844F2020188432168C860A069810317
:100F7000606B41EA400005432068C068184900E002
:100F80001FE0084028432168C8602069012809D172
:100F90002068006B20F00F00216A491E0843216879
:100FA000086305E02068006B20F00F0021680863EB
:100FB0000020A064606C20F0020040F0010060643A
:100FC00006E0606C20F0020040F010006064012632
:100FD0003046F2E63400002040420F00000300508B
:100FE00007C0F0FF10B586B004462068B0F1A04FEE
:100FF00040D100BF2048406940F080501E49486100
:101000000846406900F08050009000BF00BF0920F2
:101010000190032002900020039001A9174800F0DE
:10102000BDF913200190032002900020039001A934
:101030004FF0904000F0B2F91148124908600020CA
:10104000486000210F4881608021C16089000161F2
:1010500089004161202181610021C16100F011F905
:1010600018B17D2108A002F0DCFA00BF0548E0635A
:10107000446200BF06B010BD0010024000080048E6
:1010800008000240A00000202E2E2F5372632F7301
:10109000746D3332663378785F68616C5F6D73703E
:1010A0002E6300002DE9F04104460D461646002748
:1010B00020688068C0F38000002865D100BF94F8E4
:1010C0004000012802D10220BDE8F081012084F80F
:1010D000400000BF2046FFF74DFB0746002F4ED1D2
:1010E000606C40F60161884340F480706064606C1D
:1010F00020F4801060642068C06800F0007028B19F
:10110000606C20F4005040F480506064606C00F427
:101110008050B0F5805F04D1A06C20F00600A06480
:1011200001E00020A06400BF002084F8400000BF60
:101130001748E16B88621748E16BC8621648E16B9B
:1011400008631C20216808602068406840F0100097
:10115000216848602068C06840F001002168C860CC
:10116000226802F1400133462A46E06B00F0B4F8F1
:101170002068806840F004002168886005E000BFB6
:10118000002084F8400000E0022738469CE7000079
:1011900061060008CD060008AF06000870B50446D9
:1011A000E06B05682068066894F8401004208840C9
:1011B0002840D0B106F00400B8B12068006800F003
:1011C000200028B92068006820F004002168086029
:1011D00094F8401004208840E16B4860E06A0028E1
:1011E0004ED02046E16A88474AE094F84010022039
:1011F0008840284008B306F00200F0B1206800687B
:1012000000F0200040B92068006820F00A00216842
:101210000860012084F8210094F8401002208840E2
:10122000E16B486000BF002084F8200000BFA06A86
:1012300030B32046A16A884722E094F84010082085
:1012400088402840E0B106F00800C8B12068006876
:1012500020F00E002168086094F8401001208840BA
:10126000E16B48600120A06384F8210000BF0020EA
:1012700084F8200000BF206B10B12046216B884706
:1012800070BD70B5044600250CB9012070BD022068
:1012900084F821002068056843F6F0708543D4E99E
:1012A00001010843E1680843216908436169084373
:1012B000A1690843E16908430543206805602046A9
:1012C000FFF7AAFA0020A063012084F82100002083
:1012D00084F8200000BFD9E72DE9F04104460D460F
:1012E00016461F464FF0000800BF94F82000012862
:1012F00002D10220BDE8F081012084F8200000BF67
:1013000094F8210001282CD1022084F8210000202B
:10131000A0632068006820F00100216808603B4657
:10132000324629462046FFF785FAE06A30B1206848
:10133000006840F00E00216808600BE0206800683B
:1013400040F00A00216808602068006820F004006E
:10135000216808602068006840F00100216808608A
:1013600006E000BF002084F8200000BF4FF0020814
:101370004046BFE770B5044600F0F0F80646254643
:10138000681C10B104480078054400BF00F0E6F87E
:10139000801BA842FAD370BD3000002078B5034608
:1013A000002200240020C6E0012696400D6805EAD0
:1013B0000604002C72D04D68022D02D04D68122D0B
:1013C00013D1D60803F1200555F826005507EE0E77
:1013D0000F25B540A8435607F60E0D69B5402843C2
:1013E000D60803F1200545F82600186856000325A5
:1013F000B540A8430D7905F003055600B5402843D4
:1014000018604D68012D08D04D68022D05D04D683B
:10141000112D02D04D68122D13D198685600032566
:10142000B540A8435600CD68B54028439860586839
:1014300001259540A8430D79C5F300159540284333
:101440005860D86856000325B540A84356008D68FB
:10145000B5402843D8604D6805F08055B5F1805FF0
:1014600068D100BF374DAD6945F00105354EB56116
:101470003546AD6905F00105009500BF00BF4FEA94
:10148000B635960855F8260095072E0F0F25B5405E
:10149000A843B3F1904F02D1002510E04AE02A4D55
:1014A000AB4201D101250AE0284DAB4201D1022512
:1014B00005E0274DAB4201D1032500E00525960745
:1014C000360FB5402843234D960845F82600224D97
:1014D0002868A0434D6805F48035B5F5803F00D1FC
:1014E00020431D4D28602D1D2868A0434D6805F43C
:1014F0000035B5F5003F00D12043174D2D1D286064
:101500002D1D2868A0434D6805F48015B5F5801F92
:1015100000D12043104D083528602D1D2868A043B8
:101520004D6805F40015B5F5001F00D120430A4DA4
:101530000C352860521C0D68D540002D7FF434AF67
:1015400078BD000000100240000400480008004878
:10155000000C0048080001400004014001480068F8
:1015600070470000280000200348006803490978FC
:10157000084401490860704728000020300000201E
:1015800010B50848006840F01000064908600320C4
:1015900000F0C4F8002000F007F800F02BF800205D
:1015A00010BD00000020024070B504460E480078CF
:1015B0004FF47A71B1FBF0F00C490968B1FBF0F51A
:1015C000284601F0D0F808B1012070BD102C07D2D8
:1015D00000222146501E00F062F80548046001E038
:1015E0000120F2E70020F0E7300000203400002066
:1015F0002C00002008B500BF2148806940F00100A0
:101600001F4988610846806900F00100009000BF12
:1016100000BF00BF0846C06940F08050C86108465E
:10162000C06900F08050009000BF00BF032000F0B0
:1016300075F8002211466FF00B0000F030F8002220
:1016400011466FF00A0000F02AF8002211466FF0F0
:10165000090000F024F800221146501F00F01FF886
:1016600000221146101F00F01AF800221146901EA9
:1016700000F015F800221146501E00F010F808BDC9
:101680000010024000BF00F01F02012191404209FA
:10169000920002F1E022C2F8001100BF70472DE96C
:1016A000F05F80460D461646002701F0CFFC074646
:1016B00039462A46334601F00700C0F1070ABAF15D
:1016C000040F02D94FF0040A01E0C0F1070AD14625
:1016D00000F1040ABAF1070F02D24FF0000A01E04C
:1016E000A0F1030AD4464FF0010A0AFA09FAAAF156
:1016F000010A0AEA020A0AFA0CFA4FF0010B0BFA85
:101700000CFBABF1010B0BEA030B4AEA0B0421467D
:10171000404601F0A3FCBDE8F09F000000BF00F0D0
:101720000702064B19684FF6FF031940044B0B43A1
:1017300043EA0221014B196000BF70470CED00E045
:101740000000FA05F8B5044600260025206800F4DC
:101750008030B0F5803F74D10027A448C06900F004
:10176000805070B900BFA148C06940F080509F49C7
:10177000C8610846C06900F08050009000BF00BFFB
:1017800001279B48006800F48070B0B99848006851
:1017900040F4807096490860FFF7E0FE064606E0D8
:1017A000FFF7DCFE801B642801D90320F8BD9048B8
:1017B000006800F480700028F2D08C48006A00F4C1
:1017C0004075002D6BD0A08800F44070A84266D010
:1017D0008648006A20F440750120010491FAA1F1C5
:1017E000B1FA81F1834A02EB8101C1F800040021C2
:1017F000000490FAA0F0B0FA80F002EB8000C0F88C
:1018000000147A48056205F00100B8B3FFF7A6FEA0
:10181000064608E0FFF7A2FE801B41F288318842AD
:1018200001D90320C2E74020022191FAA1F1B1FAC7
:1018300081F108430121B1EB601F03D16B480068BF
:101840001FE03CE04020022191FAA1F1B1FA81F1C0
:1018500008430221B1EB601F02D16448006A10E026
:101860004020022191FAA1F1B1FA81F1084304214B
:10187000B1EB601F03D15D48406802E00FE05B48B8
:10188000406A4021022292FAA2F2B2FA82F2114395
:1018900001F01F020121914008400028BAD05348AE
:1018A000006A20F440706168084350490862012FC3
:1018B00004D10846C06920F08050C86100BF20787C
:1018C00000F0010038B14948006B20F00300A16826
:1018D000084346490863207800F02000202807D1FB
:1018E0004248006B20F01000E16808433F4908635C
:1018F000206800F40030B0F5003F07D13B48406855
:1019000020F48000216B084338494860207800F0BB
:101910004000402807D13548006B20F020002169A5
:10192000084332490863208800F40040B0F5004FB6
:1019300007D12E48006B20F04000616908432B4915
:101940000863208800F40070B0F5007F07D12748B5
:10195000406820F40000E169084324494860207889
:1019600000F08000802807D12048C06A20F4F87079
:10197000A16908431D49C862208800F48050B0F571
:10198000805F07D11948006B20F48070216A0843FA
:1019900016490863206800F48020B0F5802F07D135
:1019A0001248006B20F48060616A08430F490863A5
:1019B000206800F40020B0F5002F07D10B48006B21
:1019C00020F40060A16A084308490863206800F415
:1019D0008010B0F5801F07D10448006B20F4005040
:1019E000E16A0843014908630020DFE60010024075
:1019F000007000400000424270B504460D460026CB
:101A00000CB9012070BDA248006800F00700A84290
:101A10000ED29F48006820F0070028439C490860C8
:101A20000846006800F00700A84201D00120E9E75D
:101A3000207800F00200022807D19648406820F084
:101A4000F000A168084393494860207800F0010045
:101A500000287CD0606801283BD12020010391FA46
:101A6000A1F1B1FA81F108430121B1EB601F02D16C
:101A7000884800681DE02020010391FAA1F1B1FA25
:101A800081F108430221B1EB601F02D18148006A55
:101A90000FE02020010391FAA1F1B1FA81F108438E
:101AA0000421B1EB601F02D17A48406801E0794817
:101AB000406A20210A0392FAA2F2B2FA82F211439A
:101AC00001F01F0201219140084000287CD1012033
:101AD00098E7606802283BD12020010591FAA1F126
:101AE000B1FA81F108430121B1EB601F02D16948CD
:101AF00000681DE02020010591FAA1F1B1FA81F101
:101B000008430221B1EB601F02D16248006A0FE076
:101B10002020010591FAA1F1B1FA81F108430421D5
:101B2000B1EB601F02D15B48406801E05948406A50
:101B300020210A0592FAA2F2B2FA82F2114301F0D0
:101B40001F02012191400840E8BB01205AE758E0FC
:101B50002020022191FAA1F1B1FA81F1084301217B
:101B6000B1EB601F02D14B4800681DE0202002212C
:101B700091FAA1F1B1FA81F108430221B1EB601FA2
:101B800002D14448006A0FE02020022191FAA1F11D
:101B9000B1FA81F108430421B1EB601F02D13D4845
:101BA000406801E03B48406A2021022292FAA2F2FA
:101BB000B2FA82F2114301F01F0201219140084064
:101BC00008B901201EE7FFE73248406820F0030013
:101BD000616808432F494860FFF7C0FC064608E0EB
:101BE000FFF7BCFC801B41F28831884201D90320F9
:101BF00008E72848406800F00C006168B0EB810FEE
:101C0000EED12348006800F00700A8420ED9204812
:101C1000006820F0070028431D4908600846006856
:101C200000F00700A84201D00120EBE6207800F088
:101C30000400042807D11748406820F4E060E168F8
:101C4000084314494860207800F00800082808D1AB
:101C50001048406820F46050216940EAC1000D49F5
:101C6000486000F023F80B49496801F0F001F022C8
:101C700092FAA2F2B2FA82F2D140074A515CC8400D
:101C8000064908600020FFF78FFC0020BAE600003C
:101C900000200240001002400039000834000020FB
:101CA00001480068704700003400002070B5002132
:101CB00000240022002300201A4D696801F00C0561
:101CC00065B3042D02D0082D27D101E0164827E086
:101CD00001F470154FF4701696FAA6F6B6FA86F669
:101CE000F540124E735D0F4DED6A05F00F050F269E
:101CF00096FAA6F6B6FA86F6F5400D4E745D01F436
:101D000080352DB1084DB5FBF4F505FB03F202E07B
:101D1000084D03FB05F2104602E000BF024800BF79
:101D200000BF70BD0010024000127A00E0380008C9
:101D3000F038000800093D00F8B504460CB9012050
:101D4000F8BD207800F0010000287BD0FA484068F8
:101D500000F00C0004280CD0F748406800F00C009C
:101D6000082845D1F448406800F48030B0F5803F41
:101D70003ED12020010391FAA1F1B1FA81F108438B
:101D80000121B1EB601F02D1EB4800681DE020206B
:101D9000010391FAA1F1B1FA81F108430221B1EBFB
:101DA000601F02D1E448006A0FE02020010391FA8D
:101DB000A1F1B1FA81F108430421B1EB601F02D116
:101DC000DD48406801E0DC48406A20210A0392FABD
:101DD000A2F2B2FA82F2114301F01F0201219140F6
:101DE00008400028B1D0606800282BD10120A7E767
:101DF00000BF6068B0F5803F06D1CF48006840F46E
:101E00008030CD49086029E0606858B9CA48006848
:101E100020F48030C84908600846006820F480201B
:101E200008601BE06068B0F5A02F0CD1C2480068C4
:101E300040F48020C04908600846006840F48030C3
:101E400008600BE0A1E0BC48006820F48030BA498B
:101E500008600846006820F48020086000BFB6488B
:101E6000C06A20F00F00A1680843B349C8626068E7
:101E7000A0B3FFF773FB054606E0FFF76FFB401BBF
:101E8000642801D903205BE72020010391FAA1F126
:101E9000B1FA81F108430121B1EB601F02D1A648DC
:101EA00000681EE02020010391FAA1F1B1FA81F14E
:101EB00008430221B1EB601F02D19F48006A10E085
:101EC0002020010391FAA1F1B1FA81F10843042124
:101ED000B1EB601F03D19848406802E010E09648DB
:101EE000406A20210A0392FAA2F2B2FA82F2114366
:101EF00001F01F020121914008400028BDD044E0BC
:101F0000FFF72CFB054606E0FFF728FB401B642883
:101F100001D9032014E72020010391FAA1F1B1FABD
:101F200081F108430121B1EB601F02D182480068B2
:101F30001DE02020010391FAA1F1B1FA81F10843DB
:101F40000221B1EB601F02D17B48006A0FE0202024
:101F5000010391FAA1F1B1FA81F108430421B1EB37
:101F6000601F02D17448406801E07348406A202134
:101F70000A0392FAA2F2B2FA82F2114301F01F02AE
:101F80000121914008400028BED1207800F00200D5
:101F900002285CD16848406800F00C0050B16648E7
:101FA000406800F00C00082852D16348406800F4F3
:101FB0008030E8BB2020022191FAA1F1B1FA81F131
:101FC00008430121B1EB601F02D15B4800681DE0AE
:101FD0002020022191FAA1F1B1FA81F108430221F6
:101FE000B1EB601F02D15448006A0FE020200221AB
:101FF00091FAA1F1B1FA81F108430421B1EB601F1C
:1020000002D14D48406801E04B48406A202102223D
:1020100092FAA2F2B2FA82F2114301F01F020121F8
:102020009140084028B12069012802D0012087E6AC
:102030000EE04148006820F0F800F82292FAA2F27F
:10204000B2FA82F26169914008433B490860B1E00D
:10205000206970B3012191FAA1F0B0FA80F0374AFB
:1020600042F82010FFF77AFA054606E0FFF776FA05
:10207000401B022801D9032062E62020022191FAA8
:10208000A1F1B1FA81F108430121B1EB601F02D146
:10209000294800681EE02020022191FAA1F1B1FA3E
:1020A00081F108430221B1EB601F03D12248006A8D
:1020B00010E02CE02020022191FAA1F1B1FA81F187
:1020C00008430421B1EB601F02D11B48406801E0C6
:1020D0001948406A2021022292FAA2F2B2FA82F250
:1020E000114301F01F020121914008400028BDD09A
:1020F0001148006820F0F800F82292FAA2F2B2FA31
:1021000082F26169914008430B49086052E0002067
:10211000012191FAA1F1B1FA81F1084A42F82100B6
:10212000FFF71CFA05460BE0FFF718FA401B0228E0
:1021300006D9032004E600000010024000004242DD
:102140002020022191FAA1F1B1FA81F10843012185
:10215000B1EB601F02D1FB4800681DE02020022186
:1021600091FAA1F1B1FA81F108430221B1EB601FAC
:1021700002D1F448006A0FE02020022191FAA1F177
:10218000B1FA81F108430421B1EB601F02D1ED489F
:10219000406801E0EB48406A2021022292FAA2F254
:1021A000B2FA82F2114301F01F020121914008406E
:1021B0000028B9D1207800F00800082851D1A06982
:1021C00080B3012090FAA0F1B1FA81F1DE4A02EB6E
:1021D0008101C1F88004FFF7C1F9054606E0FFF769
:1021E000BDF9401B022801D90320A9E56020022186
:1021F00091FAA1F1B1FA81F108430121B1EB601F1D
:1022000002D1D04800681EE06020022191FAA1F1BD
:10221000B1FA81F108430221B1EB601F03D1C94833
:10222000006A10E01EE06020022191FAA1F1B1FAEB
:1022300081F108430421B1EB601F02D1C14840681D
:1022400001E0C048406A6021022292FAA2F2B2FA8A
:1022500082F2114301F01F02012191400840002841
:10226000BDD04FE00020012191FAA1F1B1FA81F136
:10227000B54A02EB8101C1F88004FFF76FF905460A
:1022800006E0FFF76BF9401B022801D9032057E550
:102290006020022191FAA1F1B1FA81F108430121F4
:1022A000B1EB601F02D1A74800681DE06020022149
:1022B00091FAA1F1B1FA81F108430221B1EB601F5B
:1022C00002D1A048006A0FE06020022191FAA1F13A
:1022D000B1FA81F108430421B1EB601F02D19948A2
:1022E000406801E09748406A6021022292FAA2F217
:1022F000B2FA82F2114301F01F020121914008401D
:102300000028BED1207800F00400042873D10026F4
:102310008C48C06900F0805070B900BF8948C0691E
:1023200040F080508749C8610846C06900F080507D
:10233000009000BF00BF01268448006800F4807050
:10234000B0B98248006840F4807080490860FFF7A7
:1023500005F9054606E0FFF701F9401B642801D99D
:102360000320EDE47948006800F480700028F2D082
:1023700000BFE068012806D17248006A40F0010001
:102380007049086227E0E06858B96E48006A20F09A
:1023900001006C4908620846006A20F004000862E7
:1023A00019E0E06805280BD16648006A40F0040097
:1023B000644908620846006A40F0010008620AE0C9
:1023C0006048006A20F001005E4908620846006A21
:1023D00020F00400086200BFE068B8B3FFF7BEF861
:1023E000054609E0FFF7BAF8401B41F28831884200
:1023F00002D90320A4E48BE04020022191FAA1F14C
:10240000B1FA81F108430121B1EB601F02D14D48BF
:1024100000681EE04020022191FAA1F1B1FA81F199
:1024200008430221B1EB601F02D14648006A10E068
:102430004020022191FAA1F1B1FA81F1084304216F
:10244000B1EB601F03D13F48406802E010E03D4817
:10245000406A4021022292FAA2F2B2FA82F21143B9
:1024600001F01F020121914008400028BAD046E047
:10247000FFF774F8054608E0FFF770F8401B41F2DB
:102480008831884201D903205AE44020022191FA80
:10249000A1F1B1FA81F108430121B1EB601F02D132
:1024A000284800681DE04020022191FAA1F1B1FA0C
:1024B00081F108430221B1EB601F02D12148006A7B
:1024C0000FE04020022191FAA1F1B1FA81F1084315
:1024D0000421B1EB601F02D11A48406801E019489D
:1024E000406A4021022292FAA2F2B2FA82F2114329
:1024F00001F01F020121914008400028BCD1012EAB
:1025000005D11048C06920F080500E49C86100BF55
:10251000E069002874D00B48406800F00C000828DF
:102520006FD0E06902286DD100204FF0807191FAE0
:10253000A1F1B1FA81F1044A42F82100FFF70EF847
:1025400005460CE0001002400000424200700040CE
:10255000FFF704F8401B022801D9032047E420209C
:10256000010591FAA1F1B1FA81F108430121B1EB22
:10257000601F02D16F4800681DE02020010591FA1C
:10258000A1F1B1FA81F108430221B1EB601F02D140
:102590006848006A0FE02020010591FAA1F1B1FA24
:1025A00081F108430421B1EB601F02D1614840680A
:1025B00001E06048406A20210A0592FAA2F2B2FACC
:1025C00082F2114301F01F020121914008400028CE
:1025D000BED1D4E9081008435649496821F4741162
:1025E0000843544948600121080690FAA0F0B0FA67
:1025F00080F0514A42F82010FEF7B0FF054609E08E
:1026000095E092E041E0FEF7A9FF401B022801D9C6
:10261000032038E42020010591FAA1F1B1FA81F1FB
:1026200008430121B1EB601F02D1424800681DE060
:102630002020010591FAA1F1B1FA81F108430221AC
:10264000B1EB601F02D13B48006A0FE0202001057A
:1026500091FAA1F1B1FA81F108430421B1EB601FB5
:1026600002D13448406801E03248406A20210A051E
:1026700092FAA2F2B2FA82F2114301F01F02012192
:10268000914008400028BED051E000214FF08070FA
:1026900090FAA0F0B0FA80F0274A42F82010FEF736
:1026A0005DFF054606E0FEF759FF401B022801D9F1
:1026B00003202FE42020010591FAA1F1B1FA81F164
:1026C00008430121B1EB601F02D11A4800681DE0E8
:1026D0002020010591FAA1F1B1FA81F1084302210C
:1026E000B1EB601F02D11348006A0FE02020010502
:1026F00091FAA1F1B1FA81F108430421B1EB601F15
:1027000002D10C48406801E00A48406A20210A05CD
:1027100092FAA2F2B2FA82F2114301F01F020121F1
:10272000914008400028BED101E001207FE4002054
:102730007DE400000010024000004242042808D15D
:102740004FF0E021096941F004014FF0E0221161EE
:1027500007E04FF0E021096921F004014FF0E02289
:1027600011617047704770B504462546681EB0F188
:10277000807F01D301200FE0681E4FF0E021486107
:102780000F214FF0FF3000F069FC00204FF0E021F6
:10279000886107200861002070BD10B5FFF7E2FFD7
:1027A00010BD000010B50346002200BF93F83C00A6
:1027B000012801D1022010BD012083F83C0000BF98
:1027C00022F0FF00CC6840EA040222F440708C68DA
:1027D00040EA040222F480604C6840EA040222F4D9
:1027E00000600C6840EA040222F480500C6940EA60
:1027F000040222F400504C6940EA040222F48040B2
:102800008C6A40EA040222F400408C6A40EA040226
:1028100022F470200C8B40EA04420E4C1868A0424F
:102820000ED122F470008C8C40EA045222F08070A9
:10283000CC6940EA040222F000700C6A40EA04020B
:102840001868426400BF002083F83C0000BF00BF4E
:10285000B1E70000002C014030B502460B4600BF36
:1028600092F83C00012801D1022030BD012082F8FD
:102870003C0000BF10684168106884680D4D106806
:10288000A84203D121F470015868014321F070017E
:102890001868014324F0800498680443106841607C
:1028A0001068846000BF002082F83C0000BF00BFB9
:1028B000DBE70000002C014070B504460D46042201
:1028C0002946206800F0C0FC2068406C40F40040BD
:1028D000216848642068006840F0010021680860B1
:1028E000002070BD10B504460CB9012010BD94F84D
:1028F0003D0028B9002084F83C00204600F00CF888
:10290000022084F83D00211D206800F04BFC0120CE
:1029100084F83D000020E9E708B5124A01689142B9
:102920000DD100BF1049896941F400610E4A9161DF
:102930001146896901F40061009100BF11E001684E
:10294000B1F1804F0DD100BF0749C96941F00101C4
:10295000054AD1611146C96901F00101009100BF2A
:1029600000BF08BD002C0140001002402DE9F041DD
:1029700004460D46002600BF94F83C00012802D111
:102980000220BDE8F081012084F83C0000BF022055
:1029900084F83D00206886684148064026F47F465A
:1029A00020688660286850283CD00CDC202861D044
:1029B00004DC002854D0102866D156E030285ED0C0
:1029C000402861D142E0602836D070280ED0B0F5A2
:1029D000805F03D0B0F5005F56D116E020688068B4
:1029E0002F4970310840216888604EE0D5E9021314
:1029F0006A68206800F036FC20688668284806402F
:102A000046F07706206886603FE0D5E902136A68E1
:102A1000206800F027FC2068806840F4804021682E
:102A2000886032E0EA686968206800F0CDFD5021D6
:102A3000206800F023FC28E0EA686968206800F05C
:102A4000D8FD6021206800F019FC1EE0EA68696882
:102A5000206800F0B9FD4021206800F00FFC14E070
:102A60000021206800F00AFC0FE01021206800F02F
:102A700005FC0AE02021206800F000FC05E0302180
:102A8000206800F0FBFB00E000BF00BF012084F8DD
:102A90003D0000BF002084F83C0000BF00BF70E78D
:102AA00088FFFEFF10B586B00446174920688842AB
:102AB00027D1022001900290002003900490022070
:102AC000059001A91148FEF769FC4FF4C070019010
:102AD000022002900020039004900620059001A996
:102AE0004FF09040FEF75AFC012001900220029026
:102AF0000020039004900620059001A90448FEF7E9
:102B00004DFC06B010BD0000002C0140000800483C
:102B10000004004870B504460D46164600BF94F800
:102B20003C00012801D1022070BD012084F83C0046
:102B300000BF022084F83D000C2E51D005DC4EB1C0
:102B4000042E1ED0082E7AD133E0102E60D0142E21
:102B5000F9D175E02946206800F09AFB2068806969
:102B600040F00800216888612068806920F0040036
:102B70002168886120688069296908432168886123
:102B800077E02946206800F0D3FB2068806940F494
:102B90000060216888612068806920F48060216875
:102BA000886120688069296940EA0120216888617C
:102BB0005FE02946206800F00FFC2068C06940F003
:102BC00008002168C8612068C06920F004002168FD
:102BD000C8612068C069296908432168C86148E064
:102BE0002946206800F04CFC2068C06940F4006071
:102BF0002168C8612068C06920F480602168C861CC
:102C00002068C069296940EA01202168C86130E074
:102C10002946206800F06CFC2068406D40F00800F8
:102C2000216848652068406D20F0040021684865EF
:102C30002068406D296908432168486519E017E05C
:102C40002946206800F08AFC2068406D40F400604E
:102C5000216848652068406D20F4806021684865DF
:102C60002068406D296940EA01202168486500E03C
:102C700000BF00BF012084F83D0000BF002084F8A1
:102C80003C0000BF00BF4FE710B504460CB901205F
:102C900010BD94F83D0028B9002084F83C0020467F
:102CA00000F00CF8022084F83D00211D206800F09F
:102CB00079FA012084F83D000020E9E77047000020
:102CC00030B504460D4601222946206800F0AEFAD0
:102CD0001049206888420BD00F492068884207D0ED
:102CE0000E492068884203D00D492068884201D1EE
:102CF000012000E0002028B12068406C40F4004032
:102D0000216848642068006840F00100216808607C
:102D1000002030BD002C0140004001400044014033
:102D20000048014000BFFEE700B587B04FF0A0406B
:102D3000374908604FF440304860002134488160D2
:102D400001210161C1610021416201630121C16270
:102D50000021C1600521016201214163042141611B
:102D6000002181618163FEF71FF820B14FF4937158
:102D700028A000F056FC0120019002900020049051
:102D80000520039000200590069001A92048FDF73A
:102D900069FD20B140F233111EA000F042FC022078
:102DA0000190029001A91A48FDF75CFD20B14FF493
:102DB0009E7118A000F035FC0920019003200290BC
:102DC00001A91348FDF74EFD20B140F2451111A0B5
:102DD00000F027FC052001900420029001A90C4876
:102DE000FDF740FD20B14FF4A7710AA000F019FCD7
:102DF000062001900520029001A90548FDF732FD4B
:102E000020B140F2571103A000F00BFC07B000BD49
:102E10004C0000202E2E2F5372632F6D61696E2E91
:102E20006300000008B500BF0A48406940F0010097
:102E3000084948610846406900F00100009000BF61
:102E400000BF002211460B20FEF729FC0B20FEF7E5
:102E500019FC08BD0010024008B500BF13484069C6
:102E600040F40020114948610846406900F4002000
:102E7000009000BF00BF00BF0846406940F400302A
:102E800048610846406900F40030009000BF00BF70
:102E900000BF0846406940F4802048610846406908
:102EA00000F48020009000BF00BF08BD0010024069
:102EB00000B599B03D483E490860042048600021B3
:102EC0003B4881604F21C160002101614161802147
:102ED0008161FFF707FD20B14FF4B77135A000F015
:102EE000A0FB4FF48050159015A93148FFF73EFD27
:102EF00020B14FF4BA712FA000F093FB2C48FFF7DC
:102F0000C3FE20B140F279112AA000F08AFB002014
:102F100012901390149012A92548FFF79DFC20B140
:102F200040F2811123A000F07CFB70200B90182050
:102F30000C9000200D900E900F9010901190002298
:102F40000BA91B48FFF7E6FD20B140F28D1119A037
:102F500000F067FB04220BA91548FFF7DBFD20B149
:102F600040F2931113A000F05CFB00200090019050
:102F70000290039004904FF40050059000200690BA
:102F800007904FF000700890002009900A90694661
:102F90000748FFF707FC20B140F2A31105A000F09D
:102FA00040FB0348FFF77EFD19B000BD002C014037
:102FB000E40000202E2E2F5372632F6D61696E2E58
:102FC0006300000000B587B04FF0804018490860EA
:102FD000032048600021164881606421C1600021FF
:102FE00001618161FFF77EFC20B140F2B91111A0AF
:102FF00000F017FB4FF48050039003A90C48FFF733
:10300000B5FC20B140F2BF110AA000F00AFB20205D
:1030100000900020029069460548FFF71DFC20B192
:103020004FF4E37103A000F0FCFA07B000BD00000C
:10303000240100202E2E2F5372632F6D61696E2E96
:103040006300000000BFFEE7704700000248006810
:10305000C0F30220704700000CED00E010B500281E
:1030600007DA0A07140E054A00F00F031B1FD45499
:1030700003E00A07130E024A135410BD18ED00E0D6
:1030800000E400E07047704710B5FEF76DFAFFF7F7
:1030900084FB10BD10B59CB0022012900120169048
:1030A000102017900020199012A8FEF745FE18B1C5
:1030B000EA2119A000F0B5FA0F200D9000200E9023
:1030C0000F901090119000210DA8FEF795FC18B1FB
:1030D000F82111A000F0A5FA4FF4805000900020D4
:1030E00008906846FEF72EFB18B1FF210AA000F0F9
:1030F00098FAFEF7D5FD4FF47A71B0FBF1F4204653
:10310000FFF731FB0420FFF719FB00221146501E88
:10311000FEF7C5FA1CB010BD2E2E2F5372632F6D13
:1031200061696E2E630000001948006840F4700069
:10313000174908601748006840F001001549086009
:10314000084640681449084012494860084600682B
:10315000124908400F4908600846006820F48020A2
:1031600008600846406820F4FE0048600846C06ACF
:1031700020F00F00C8620846006B09490840054965
:10318000086300208860C8030149803908607047DF
:1031900088ED00E0001002400CC07FF8FFFFF6FE53
:1031A000CCFC00FF10B5002202681C4B984202D0F4
:1031B000B0F1804F03D122F070024B681A43174BD5
:1031C00098420BD0B0F1804F08D0154B984205D0F3
:1031D000144B984202D0144B984203D122F440720F
:1031E000CB681A4322F080034C6943EA0402026070
:1031F0008B68C3620B688362084B984208D0084B07
:10320000984205D0074B984202D0074B984201D113
:103210000B6903630123436110BD0000002C0140D2
:1032200000400140004401400048014030B5002307
:10323000012404FA01F3046A9C430462046A02FA5A
:1032400001F52C43046230BD30B50023042404FA98
:1032500001F3046A9C430462046A02FA01F52C43F8
:10326000046230BD30B50C460021816821F47F41F5
:1032700042EA032525432943816030BD0A460021E7
:10328000816821F0700142F00703194381607047A3
:1032900030B5002400220023056A25F001050562EF
:1032A000026A436884691D4D2C4024F003040D68B4
:1032B0002C4322F002028D682A43194DA84200D106
:1032C0000BE0184DA84200D107E0174DA84200D1ED
:1032D00003E0164DA84206D100BF22F00802CD68D7
:1032E0002A4322F004020E4DA84208D00D4DA842F8
:1032F00005D00D4DA84202D00C4DA84207D123F4B1
:10330000807323F400734D692B438D692B43436015
:1033100084614D684563026230BD00008FFFFEFF8F
:10332000002C0140004001400044014000480140A1
:1033300030B5002400220023056A25F0100505623F
:10334000026A436884691F4D2C4024F440740D6860
:1033500044EA052422F020028D6842EA05121A4D43
:10336000A84200D10BE0194DA84200D100BF184D72
:10337000A84200D100BF174DA84207D106E022F0B5
:103380008002CD6842EA051222F040020E4DA842AA
:1033900008D00E4DA84205D00D4DA84202D00D4DCB
:1033A000A84209D123F4806323F400634D6943EA02
:1033B00085038D6943EA8503436084614D688563B5
:1033C000026230BDFF8FFFFE002C01400040014033
:1033D000004401400048014030B500240022002391
:1033E000056A25F480750562026A4368C4691F4D49
:1033F0002C4024F003040D682C4322F400728D68E5
:1034000042EA05221A4DA84200D10BE0194DA8420C
:1034100000D100BF184DA84200D100BF174DA842EF
:1034200007D106E022F40062CD6842EA052222F4C8
:1034300080620F4DA84208D00E4DA84205D00E4D17
:10344000A84202D00D4DA84209D123F4805323F4A1
:1034500000534D6943EA05138D6943EA0513436040
:10346000C4614D68C563026230BD00008FFFFEFF7E
:10347000002C014000400140004401400048014050
:1034800030B5002200230024056A25F4805505622A
:10349000036A4468C269114D2A4022F440720D68E3
:1034A00042EA052223F400538D6843EA05330C4DAC
:1034B000A84208D00B4DA84205D00B4DA84202D01F
:1034C0000A4DA84204D124F480444D6944EA85148D
:1034D0004460C2614D680564036230BDFF8FFFFE2A
:1034E000002C0140004001400044014000480140E0
:1034F00030B5002400220023056A25F480350562DA
:10350000026A4368446D104D2C400D682C4322F430
:1035100000320D8942EA05420C4DA84208D00C4DFC
:10352000A84205D00B4DA84202D00B4DA84204D1B1
:1035300023F480334D6943EA0523436044654D68B5
:103540008565026230BD00008FFFFEFF002C014048
:1035500000400140004401400048014030B50024D3
:1035600000220023056A25F480150562026A43687B
:10357000446D104D2C400D6844EA052422F40012DD
:103580000D8942EA05520C4DA84208D00B4DA842C5
:1035900005D00B4DA84202D00A4DA84204D123F415
:1035A00080234D6943EA8523436044654D68C565C2
:1035B000026230BDFF8FFFFE002C01400040014041
:1035C000004401400048014030B50B46144600213C
:1035D0000022026A056A25F001050562816921F071
:1035E000F00141EA041122F00A021A4381610262E9
:1035F00030BD30B50B46144600210022056A25F087
:10360000100505628169026A21F4704141EA0431C2
:1036100022F0A00242EA03128161026230BD00BFC3
:10362000FEE700BFFEE702E008C8121F08C1002A3B
:10363000FAD170477047002001E001C1121F002A33
:10364000FBD170472DED0C8BFDF79AFFFFF722FDA4
:10365000FFF702FCFFF7E6FBFFF766FBFFF7B2FCA4
:10366000FFF726FC05227B497B48FDF71BFD002167
:103670007A48FFF725FB00217848FFF71DF9042160
:103680007648FFF71DFB04217448FFF715F9002168
:10369000322000F0F7F80421322000F0F3F89FED1B
:1036A000700AB0EE408A9FED6E0AB0EE40AA9FED20
:1036B0006C0AF0EE408A00BF9FED690A10EE104AD6
:1036C0009FED670AB0EE409A9FED650AF0EE409AD2
:1036D000BEE000200EE0634991ED000A39EE800A59
:1036E000F0EE409A604991ED000A39EE000AB0EE22
:1036F000409A401CC828EEDB9FED5C0AC9EE800AA8
:10370000B0EE608A9FED590AC9EE000AB0EE60AAD9
:103710009FED530AF0EE409A9FED510AB0EE409AA9
:103720002AEE080A524880ED000A2046FCF771FE96
:1037300041EC1D0B9FED4F0B53EC102BFCF750FD94
:1037400041EC1B0B4A480068FCF763FE41EC1C0B84
:1037500053EC1B2BFCF788FE18D8B4EEE88AF1EE88
:1037600010FA09DD454890ED000AF0EE000A30EE4F
:10377000200A80ED000A39E0404890ED000AF0EEA2
:10378000000A30EE600A80ED000A2FE02046FCF7C8
:1037900040FE41EC1D0B9FED370B53EC102BFCF75B
:1037A000C0FD41EC1B0B32480068FCF732FE41ECD7
:1037B0001C0B53EC1B2BFCF73FFE17D8B4EEE88A2A
:1037C000F1EE10FA09DD2D4890ED000AF0EE000A46
:1037D00030EE600A80ED000A08E0284890ED000A0B
:1037E000F0EE000A30EE200A80ED000A234890ED4A
:1037F000000ADFED230AB4EEE00AF1EE10FA03DB73
:103800009FED1F0A80ED000A1C4890ED000AF2EEC1
:10381000040AB4EEE00AF1EE10FA03D8B2EE040A9C
:1038200080ED000AF0EE488A00BF114890ED000AD2
:1038300010EE104A0021114890ED000ABCEEC00ABB
:1038400010EE100A00F01EF84FF4C870FDF792FD5C
:103850003FE70000380000204C000020E40000207A
:103860000000000008000020040000200000484381
:10387000180000207B14AE47E17A743F240000203A
:103880000000B44210B50246144BDB685B1C534386
:103890006424B3FBF4F3581E19B9104B1B6858632A
:1038A0001AE0042903D10D4B1B68986314E0082922
:1038B00003D10A4B1B68D8630EE00C2903D1074BD8
:1038C0001B68186408E0102903D1044B1B68986535
:1038D00002E0024B1B68D86510BD0000E400002028
:1038E00002030405060708090A0B0C0D0E0F101041
:1038F0000102030405060708090A0B0C0D0E0F1040
:10390000000000000000000001020304060708098F
:103910000000000001020304383900080000002004
:1039200038000000263600087039000838000020F2
:1039300030050000363600080000000000000000DE
:103940000000000000000000000000000000000077
:1039500000000000000000000000000000004842DD
:1039600000000000100000000100000000127A00BA
:040000050800018965
:00000001FF
