:020000040800F2
:10000000F80400209D0100084F180008711700082F
:100010004D18000809030008271A00080000000016
:10002000000000000000000000000000731800083D
:10003000630300080000000071180008751800082C
:10004000B7010008B7010008B7010008B7010008B0
:10005000B7010008B7010008B7010008B7010008A0
:10006000B7010008B7010008B70100080D03000838
:10007000B7010008B7010008B7010008B701000880
:10008000B7010008B7010008B7010008B701000870
:10009000B7010008B7010008B7010008B701000860
:1000A000B7010008B7010008B7010008B701000850
:1000B000B70100080000000000000000B7010008C0
:1000C000B7010008B7010008B701000800000000F0
:1000D000B7010008B7010008B7010008B701000820
:1000E000B7010008B7010008B701000800000000D0
:1000F0000000000000000000000000000000000000
:10010000000000000000000000000000B70100082F
:100110000000000000000000B7010008000000001F
:1001200000000000000000000000000000000000CF
:1001300000000000000000000000000000000000BF
:10014000B7010008B701000800000000000000002F
:10015000000000000000000000000000000000009F
:10016000B7010008B7010008B7010008B70100088F
:10017000B7010008000000000000000000000000BF
:1001800000000000B7010008DFF80CD000F018F8FC
:1001900000480047491A0008F80400200648804734
:1001A00006480047FEE7FEE7FEE7FEE7FEE7FEE75C
:1001B000FEE7FEE7FEE7FEE7DD180008890100081C
:1001C000064C074D06E0E06840F0010394E80700A4
:1001D00098471034AC42F6D3FFF7DAFFDC1A000878
:1001E000FC1A00080146406A426C12F0500F03D01E
:1001F000C06B026B08461047416C41F400714164CA
:100200000168C96811F4406F0CD1C16951B9416CE2
:1002100021F480714164416CC90403D4416C41F004
:100220000101416400F034BA406A416C41F0400180
:100230004164816C41F00401816400F02BBA406A92
:1002400000F027BA70B504460068816801F0030128
:10025000012926D10168C90723D0816801F00D0169
:10026000012910D1816841F00201816021680320D9
:10027000086000F017FD05460FE000BF00F012FD1A
:10028000401B022809D9606C40F010006064A06C2B
:1002900040F00100A064012070BD20688068C007A4
:1002A000ECD1002070BD000070B504460068816884
:1002B00001F00301012902D10168C90720D1816839
:1002C000104A11420DD1816841F00101816000F0B6
:1002D000E9FC05460FE000BF00F0E4FC401B0228EB
:1002E00009D9606C40F010006064A06C40F001001F
:1002F000A064012070BD20680068C043C007EBD136
:10030000002070BD3F000080FEE70000014800F0C3
:1003100055BB0000B0000020054A016811441422BA
:10032000B1FBF2F1890001640249C163704700002A
:10033000F8FFFDBF0000024030B590F840500124A6
:10034000AC40C56B6C60046863604368102B036845
:1003500003D099600068C26030BD9A600068C160D7
:1003600030BD7047F0B595B00025009590F840205D
:100370002E46012A19D0012780F8407003689A6838
:1003800052077DD44A681F24052A11D2D3F830C001
:1003900002EB4202520094402CEA040C0C68944098
:1003A0004CEA040CC3F830C035E0022015B0F0BDB3
:1003B0000A2A0FD2D3F834C0521F02EB4202520075
:1003C00094402CEA040C0C6894404CEA040CC3F8EA
:1003D00034C020E00F2A0FD2D3F838C00A3A02EB1B
:1003E0004202520094402CEA040C0C6894404CEAFF
:1003F000040CC3F838C00EE0D3F83CC00F3A02EB4F
:100400004202520094402CEA040C0C6894404CEADE
:10041000040CC3F83CC00268936813F00C0F4FF053
:10042000070373D10C680A2C11D3D2F818C00A3C08
:1004300004EB440403FA04FE2CEA0E0CD1F808E0A5
:100440000EFA04FE4CEA0E0CC2F818C00FE0D2F807
:1004500014C004EB440403FA04FE2CEA0E0CD1F899
:1004600008E00EFA04FE4CEA0E0CC2F814C0026852
:100470004C69D2F80CC0CCF3C10C4FEA4C0C00E034
:10048000CDE004FA0CF4D1F810E0DFF8F4C1BEF1CD
:10049000010F42D0BEF1020F4DD0BEF1030F58D074
:1004A000BEF1040F63D0146E91F800C004F0F8445C
:1004B000B4EB8C6F03D1146E24F000441466026810
:1004C000546E91F800C004F0F844B4EB8C6F03D183
:1004D000546E24F0004454660268946E91F800C093
:1004E00004F0F844B4EB8C6F03D1946E24F0004414
:1004F00094660268D46E91F800C004F0F844B4EB3E
:100500008C6F03D1D46E24F00044D46602689468E2
:1005100004F00304012C3AD136E0D2F860E00EEA90
:100520000C0E91F800C044EA8C644EEA040E4EF0C2
:1005300000441466EAE7D2F864E00EEA0C0E91F883
:1005400000C044EA8C644EEA040E4EF00044546647
:10055000DCE7D2F868E00EEA0C0E91F800C044EA3D
:100560008C644EEA040E4EF000449466CEE7D2F856
:100570006CE00EEA0C0E91F800C044EA8C644EEA7E
:10058000040E4EF00044C0E71468E4074CD1CC6878
:10059000012C06D052F8B03F0C78A740BB43136043
:1005A00020E052F8B04F91F800C007FA0CF73C4336
:1005B00014600A6804680A2A0AD3A769093A02EB98
:1005C000420293409F438B6893401F43A76109E019
:1005D0006769521C02EB420293409F438B68934031
:1005E0001F4367610968274A102904D0112905D0E3
:1005F000122906D018E093681B0204E09368DB011F
:1006000001E093685B02002B0EDB009603689C6898
:1006100004F00304012C0BD11C68E40708D0416CE2
:1006200041F020014164012580F840602846BDE684
:100630004FF0A044102908D011291AD01229F3D163
:10064000916841F480019160EEE7A342ECD191689A
:1006500041F4000191600C490C4A0968B1FBF2F1C8
:1006600001EB8101490000E0491E00910029FBD106
:10067000DAE7A342D8D1916841F08071E3E7000046
:1006800000F0FF83000300500C00002040420F00E8
:100690007047704770470000F0B54FF0000695B006
:1006A000040037463546009605D0606CC00648D435
:1006B000606C18B133E0012015B0F0BDA56425656C
:1006C000E56484F84050204600F0C4F82068806853
:1006D000C00024D42046FFF7B5FD0646606CC00676
:1006E0001DD4E6B9606C20F4885040F002006064CC
:1006F0002068816821F0405181602068816841F064
:10070000805181604E484F490068B0FBF1F000EB2A
:100710008000400000E0401E00900028FBD12068CF
:100720008168C90002D5806880000AD5606C20F01D
:10073000020040F010006064A06C40F00100A06472
:100740000126606CC00671D4002E6FD121688868C4
:1007500040076BD4606C20F4807040F0020060644D
:10076000009539488A6802F00302012A02D109681B
:10077000C90705D18168626821F440311143816065
:10078000D4E902100843A16B012902D04FF4805232
:1007900000E00022E16942EA41321043626A3843D4
:1007A000012A0AD1A9B1616C21F0020141F02001B6
:1007B0006164A16C41F00101A164E16A012902D0E8
:1007C000226B1143084321688A6812F00C0F08D08D
:1007D00012E0218D1D4A02EB4141014341F480307A
:1007E000EBE7CA6844F202039A43CA60A169626BEC
:1007F000890341EA420108432168CA68144B1A4040
:100800000243CA60206901282068016B21F00F01B2
:1008100002D1226A521E11430163A564606C20F06C
:10082000020040F00100606407E0FFE7606C20F028
:10083000020040F010006064012630463CE70000F2
:100840000C00002040420F00000300500000FEFF9B
:1008500007C0F0FF70B50546006886B0B0F1A04F44
:100860002BD11748416941F0805141614069002610
:1008700000F080500590072000900320CDE901068C
:1008800069464FF0904000F04DF90F4C0D48C4E917
:1008900000068020C4E90260800020618000606161
:1008A0002020C4E90606204600F0DCF818B17421C7
:1008B00006A001F0B9F8EC63656206B070BD0000F7
:1008C0000010024008000240B00000202E2E2F53DE
:1008D00072632F73746D3332663378785F68616C3E
:1008E0005F6D73702E6300002DE9F04104460068CF
:1008F00016460F468068400756D494F840000128F9
:100900000CD0012084F840002046FFF7CDFC050004
:100910004FF0000005D084F8400046E00220BDE81A
:10092000F081616C40F60162914341F48071616431
:10093000616C21F4801161642168C968890105D561
:10094000616C21F4005141F480516164616CC9040F
:1009500004D5A16C21F00601A16400E0A06484F834
:100960004000E16B12488862E16B1248C862E16B9B
:100970001148086321681C2008602068416841F024
:10098000100141602068C16841F00101C160216827
:1009900033463A464031E06B00F08BF820688168BE
:1009A00041F00401816000E002252846B7E700001D
:1009B000E50100083F02000829020008F0B4C16BFD
:1009C0000D6801680C68066C042202FA06F32B42DB
:1009D0000FD063070DD50B689B0603D40B6823F07B
:1009E00004030B6090F840108A40C16B4A60C16AF2
:1009F0001BE0022303FA06F72F424FF0000C4FF0E2
:100A0000010216D0A70714D50C68A40605D40C68FB
:100A100024F00A040C6080F8212090F840108B40EC
:100A2000C16B4B6080F820C0816A002918D0F0BCEF
:100A300008470823B3402B4212D0230710D50B6878
:100A400023F00E030B6090F84010C36B02FA01F123
:100A50005960826380F8212080F820C0016BE4E7B0
:100A6000F0BC704770B5040021D0022084F821004A
:100A70002268116843F6F0708143D4E901031843FA
:100A8000D4E903352B43184363691843A36918431A
:100A9000E3691843084310602046FFF73DFC00203F
:100AA000A063012184F8211084F8200070BD01208A
:100AB00070BD70B5044690F82000002501280CD0C8
:100AC000012084F8200094F821600020012E06D037
:100AD00084F820000225284670BD022070BD022641
:100AE00084F82160A0632068066826F0010606608D
:100AF0002046FFF721FCE06A00282068016802D048
:100B000041F00E0106E041F00A0101602068016831
:100B100021F0040101602068016841F001010160D9
:100B2000D9E700002DE9F84FDFF860B100234FF05E
:100B3000010C4FF0030A4FF00F090BF1040E9DE07A
:100B40000CFA03F6344022007ED04C68022C01D00F
:100B5000122C0ED1DC0800EB8408D8F820405D0789
:100B6000EF0E09FA07F5AC430D69BD402543C8F8FF
:100B7000205007685D0091F804800AFA05F408F037
:100B80000308A74308FA05F848EA0708C0F80080F8
:100B90004F68012F05D0022F03D0112F01D0122F43
:100BA00011D18768D1F80C80A74308FA05F848EA04
:100BB0000708C0F808804768B7430E79C6F30016E7
:100BC0009E403E434660C668A6438C68AC403443B2
:100BD000C4604C68E40050D52D4CA56945F0010572
:100BE000A561A46923F0030504F001040094294CD5
:100BF0002E19B4689D072F0F09FA07F5AC43B0F121
:100C0000904F04D0244DA84203D101250CE00025CB
:100C10000AE0224DA84201D1022505E0204DA8425C
:100C200001D1032500E00525BD402543B560DBF873
:100C300000405D464E689443F60300D514432C6093
:100C40007546DEF8004000E017E04E689443B603B6
:100C500000D514432C600D4D08352C684E68944324
:100C6000F60200D514432C60084D0C352C684E68F4
:100C70009443B60200D514432C605B1C0A681446EA
:100C8000DA407FF45DAFBDE8F88F0000000401405A
:100C90000010024000000140000400480008004825
:100CA000000C0048014880687047000000000020E8
:100CB000024881680278114481607047000000207A
:100CC000074810B5016841F010010160032000F0F1
:100CD00095F8002000F006F800F024F8002010BD80
:100CE0000020024070B50D4D04464FF47A7128780B
:100CF000B1FBF0F00A490968B1FBF0F000F03FFCED
:100D000048B9102C07D200222146501E00F056F898
:100D100000206C6070BD012070BD0000000000204C
:100D20000C0000201E4808B5816941F00101816175
:100D3000816901F001010091C16941F08051C161F7
:100D4000C06900F080500090032000F057F80022A6
:100D500011466FF00B0000F031F8002211466FF0E1
:100D60000A0000F02BF8002211466FF0090000F095
:100D700025F800221146501F00F020F800221146ED
:100D8000101F00F01BF800221146901E00F016F80C
:100D90000022BDE808401146501E00F00FB80000C8
:100DA0000010024000F01F02012191404009800024
:100DB00000F1E020C0F8001170470000F0B40E4BC5
:100DC0001B680C46C3F30223C3F10705042D00D9A9
:100DD0000425191D072901D2002300E0DB1E01268E
:100DE00006FA05F1491E214099409E40761E1640A4
:100DF0003143F0BC00F02CBD0CED00E0064900F0E2
:100E0000070208684FF6FF03184040EA0220034A31
:100E100010430860704700000CED00E00000FA0588
:100E20002DE9F0470F46050069D04A4E306800F0C2
:100E30000700B84209D2306820F00700384330601C
:100E4000306800F00700B84259D12878424C80073A
:100E500005D56068A96820F0F00008436060287834
:100E6000C0073DD06968012001290DD0022923D097
:100E70005FF0020393FAA3F2B2FA82F242F0200288
:100E8000520904D0226803E04FF40033F2E7626AAB
:100E900093FAA3F3B3FA83F303F01F0398400242DB
:100EA0002DD0606820F0030008436060FFF7FAFE71
:100EB000804641F288390CE04FF00073DAE700BF5A
:100EC000FFF7F0FEA0EB0801494502D90320BDE879
:100ED000F0876068696800F00C00B0EB810FEFD11B
:100EE000306800F00700B8420BD9306820F00700E6
:100EF00038433060306800F00700B84201D001206C
:100F0000E5E72878400705D56068E96820F4E060E7
:100F1000084360602878000706D56068296920F4D6
:100F2000605040EAC100606000F022F86168F02281
:100F300092FAA2F201F0F001B2FA82F2D140074A2D
:100F4000515CC840064908600020FFF7CBFE002036
:100F5000BDE700000020024000100240CC1A00084B
:100F60000C00002001480068704700000C000020C1
:100F7000144B10B55A68144802F00C0104291DD016
:100F800008291BD14FF4701494FAA4F402F47011E0
:100F9000B4FA84F4E1400D4CDB6A615C0F2494FAEE
:100FA000A4F403F00F03B4FA84F4E340074C1034C4
:100FB000D203E35C03D5B0FBF3F0484310BD044813
:100FC000484310BD0010024000127A00AC1A00081D
:100FD00000093D002DE9F84F040071D02078FB4D49
:100FE000C0074FF0010625D068687704C0F3810080
:100FF000012807D06868C0F3810002281BD1686807
:10100000C00318D597FAA7F0B0FA80F040F020009E
:10101000400901D0286800E0686A97FAA7F1B1FAA0
:1010200081F101F01F0106FA01F1084265D0606804
:101030000028D2D061E06068B0F5803F0BD010B1DD
:10104000B0F5A02F17D0286820F4803028602868D9
:1010500020F4802002E0286840F480302860E86AAC
:10106000A16820F00F000843E862606820B3FFF732
:1010700019FE80460AE0286840F480202860EAE7EC
:10108000FFF710FEA0EB0800642872D897FAA7F0CB
:10109000B0FA80F040F02000400901D0286800E05C
:1010A000686A97FAA7F1B1FA81F101F01F0106FA17
:1010B00001F10842E4D020E0FFF7F4FD804607E0AC
:1010C000C7E000BFFFF7EEFDA0EB08006428DCD806
:1010D00097FAA7F0B0FA80F040F02000400901D064
:1010E000286800E0686A97FAA7F1B1FA81F101F087
:1010F0001F0106FA01F10842E4D12078DFF8D0821E
:1011000080074FF0000A4FF0020759D568684FF08A
:10111000F80B10F00C0F07D06868C0F381000228AC
:101120001BD16868C00318D497FAA7F0B0FA80F012
:1011300040F02000400901D0286800E0686A97FA72
:10114000A7F1B1FA81F101F01F0106FA01F108429D
:101150002BD0206901287CD127E0206988B396FA3A
:10116000A6F0B0FA80F048F82060FFF79BFD8146BA
:1011700006E055E1FFF796FDA0EB0900022884D8B0
:1011800097FAA7F0B0FA80F040F02000400901D0B3
:10119000286800E0686A97FAA7F1B1FA81F101F0D6
:1011A0001F0106FA01F10842E4D028689BFAABF26D
:1011B0006169B2FA82F220F0F80091400843286099
:1011C00025E0FFE796FAA6F1B1FA81F148F821A0EF
:1011D000FFF768FD814605E0FFF764FDA0EB09001D
:1011E0000228CCD897FAA7F0B0FA80F040F020009F
:1011F000400901D0286800E0686A97FAA7F1B1FABF
:1012000081F101F01F0106FA01F10842E4D12078D2
:1012100000076AD5A069A0B396FAA6F0B0FA80F0EC
:1012200008EB8000C0F88064FFF73CFD814605E0D4
:10123000FFF738FDA0EB09000228A0D897FAA7F025
:10124000B0FA80F040F06000B6EB501F02D1286881
:101250000CE077E197FAA7F0B0FA80F040F0600078
:10126000B7EB501F01D1286A00E0686A97FAA7F12E
:10127000B1FA81F101F01F0106FA01F21042D7D054
:1012800033E0FFE796FAA6F0B0FA80F008EB8000B2
:10129000C0F880A4FFF706FD814605E0FFF702FDD8
:1012A000A0EB090002289CD897FAA7F0B0FA80F0CA
:1012B00040F06000B6EB501F01D128680BE097FAB0
:1012C000A7F0B0FA80F040F06000B7EB501F01D1FA
:1012D000286A00E0686A97FAA7F1B1FA81F101F093
:1012E0001F0106FA01F21042D8D12078400774D5C8
:1012F000E8694FF00009C00009D4E86940F0805067
:10130000E861E8694FF0010900F080500090314831
:101310000168C90512D4016841F480710160FFF7CA
:10132000C1FC834606E000BFFFF7BCFCA0EB0B004E
:10133000642875D827480068C005F5D5E0680128FD
:101340000AD008B1052811D0286A20F001002862CF
:10135000286A20F0040002E0286A40F001002862B8
:10136000E068C8B3FFF79EFC83460DE0286A40F0B2
:1013700004002862F0E700BFFFF794FCA0EB0B012C
:1013800041F2883081424BD897FAA7F0B0FA80F04A
:1013900040F04000B6EB501F01D128680BE097FAEF
:1013A000A7F0B0FA80F040F04000B7EB501F01D139
:1013B000286A00E0686A97FAA7F1B1FA81F101F0B2
:1013C0001F0106FA01F21042D6D035E000100240AB
:1013D000000042420070004000E034E0FFF762FC91
:1013E000834607E0FFF75EFCA0EB0B0141F288307B
:1013F000814215D897FAA7F0B0FA80F040F040008B
:10140000B6EB501F01D128680CE097FAA7F0B0FAAC
:1014100080F040F04000B7EB501F02D1286A01E095
:1014200083E0686A97FAA7F1B1FA81F101F01F0130
:1014300006FA01F21042D5D1B9F1000F03D0E869E4
:1014400020F08050E861E06980B36968C1F38101F0
:10145000022977D04FF080714F00022809D091FA0D
:10146000A1F0B0FA80F048F820A0FFF71BFC04467A
:101470005EE050468A4691FAA1F1B1FA81F1C14687
:1014800048F82100FFF70EFC804605E0FFF70AFC54
:10149000A0EB0800022848D897FAA7F0B0FA80F02D
:1014A00040F02000400902D0286801E056E0686A58
:1014B00097FAA7F1B1FA81F101F01F0106FA01F1E3
:1014C0000842E3D1D4E908100843696821F4741193
:1014D000084368609AFAAAF0B0FA80F049F82060F0
:1014E000FFF7E0FB044604E0FFF7DCFB001B0228EB
:1014F0001BD897FAA7F0B0FA80F040F0200040091E
:1015000001D0286800E0686A97FAA7F1B1FA81F182
:1015100001F01F0106FA01F10842E5D01EE000BF0C
:10152000FFF7C0FB001B022802D90320BDE8F88F9B
:1015300097FAA7F0B0FA80F040F02000400902D0FE
:10154000286801E00CE0686A97FAA7F1B1FA81F126
:1015500001F01F0106FA01F10842E1D10020E5E7A0
:101560000120E3E74FF0E0210428086903D020F0D0
:1015700004000861704740F00400FAE7704710B5B6
:10158000401EB0F1807F01D3012010BD4FF0E02458
:1015900060610F21601700F05BF90020A061072057
:1015A0002061002010BD10B5FFF7E8FF10BD00005E
:1015B00030B590F83C20012A1CD0012280F83C2054
:1015C00003685A689C680C4DAB4203D122F4700545
:1015D0004A682A4322F070050A6889682A4324F081
:1015E000800421435A6002689160002180F83C1019
:1015F000084630BD022030BD002C014010B504006B
:1016000003D094F83D0010B107E0012010BD002088
:1016100084F83C00204600F00DF8022084F83D00DC
:10162000211D206800F08EF9012084F83D00002083
:1016300010BD000008B50068B0F1804F08D1054822
:10164000C16941F00101C161C06900F00100009071
:1016500008BD000000100240022180F83D10016822
:101660000A6842F001020A60012180F83D10002062
:101670007047000070B5044690F83C00012817D070
:10168000012584F83C50022084F83D0022689068CF
:10169000364E304020F47F4090600868502839D0A2
:1016A0000DDC20285BD005DC98B3102843D153E033
:1016B000022070BD302855D040283CD141E0602840
:1016C00030D070280CD0B0F5805F03D0B0F5005F4B
:1016D00031D112E020688168244A7032114016E04E
:1016E000CB68D1E90121206800F068F92168886899
:1016F000304040F0770088601DE0CB68D1E90121DF
:10170000206800F05BF92068816841F480418160C5
:1017100011E01EE0CA684968206800F061F95021B4
:10172000206806E0CA684968206800F06AF960210C
:10173000206800F04DF984F83D50002084F83C000A
:1017400070BDCA684968206800F04AF940212068E5
:10175000EFE700212068ECE710212068E9E720216D
:101760002068E6E730212068E3E7000088FFFEFFFD
:10177000FEE70000F0B51F4887B04FF0A0410160C0
:1017800001254FF4403100240561C0E90114A9028C
:10179000446201634FF43071C4600326C162C0E942
:1017A00007560427C0E90574C0E90D54FEF774FF1D
:1017B00000B1FEE7CDE902740095019504946946F5
:1017C0000C480594FEF7CEFD00B1FEE70220009024
:1017D000019069460748FEF7C5FD00B1FEE7009697
:1017E000694604480196FEF7BDFD002800D0FEE7DB
:1017F00007B0F0BD1000002010B5134888B04FF0BE
:10180000804101604FF448710024C0E90114642153
:10181000C0E903148461FFF7F1FE00B1FEE74FF465
:101820008050039003A90848FFF724FF00B1FEE7AA
:1018300020200090694602940348FFF7B9FE002873
:1018400000D0FEE708B010BD64000020FEE770473E
:101850000907090E002806DA00F00F0000F1E02069
:1018600080F8141D704700F1E02080F800147047E4
:101870007047704710B5FFF71BFABDE81040FFF73F
:1018800092BE10B590B0022000900120049010206C
:101890000024059007946846FFF79CFB00B1FEE723
:1018A0000F20CDE90A040C940D9400210AA80E948F
:1018B000FFF7B6FA00B1FEE7FFF754FB4FF47A7179
:1018C000B0FBF1F0FFF75BFE0420FFF74BFE0022B8
:1018D0001146501EFFF772FA10B010BD144801688F
:1018E00041F4700101601348016841F00101016099
:1018F0004168114A114041600168104A114001607D
:10190000016821F480210160416821F4FE014160F9
:10191000C16A21F00F01C162016B094A11400163E4
:10192000002181600249C0038039086070470000CF
:1019300088ED00E0001002400CC07FF8FFFFF6FECB
:10194000CCFC00FFF0B50268184B4FF0804798427E
:1019500001D0B84203D122F070044A682243144CEB
:10196000144D154E984207D0B84205D0A04203D07E
:10197000A84201D0B04203D122F44077CA683A436A
:101980004F6922F080023A4302608A68C2620A68A4
:101990008262984205D0A04203D0A84201D0B04252
:1019A00001D10969016301214161F0BD002C0140B1
:1019B00000400140004401400048014010B58468E7
:1019C00042EA032224F47F440A432243826010BD8A
:1019D000826822F070020A4342F00701816070477A
:1019E00010B5036A046A24F001040462846924F0D7
:1019F000F00444EA021423F00A020A4384610262FA
:101A000010BD10B5036A23F0100303628369046AF2
:101A100023F4704343EA023224F0A00343EA0111A5
:101A20008261016210BDFEE7FEE702E008C8121FF6
:101A300008C1002AFAD170477047002001E001C1B7
:101A4000121F002AFBD1704708B5FFF739F9FFF7DD
:101A500018FF1448416941F400314161416901F4C2
:101A600000310091416941F001014161406900226A
:101A700000F00100009011460B20FFF79FF90B20AA
:101A8000FFF790F9FFF776FEFFF7B6FE0648FFF77F
:101A9000E3FD054903224031A1F19400FEF724FF44
:101AA000FEE700000010024064000020020304056D
:101AB000060708090A0B0C0D0E0F10100102030493
:101AC00005060708090A0B0C0D0E0F100000000098
:101AD000000000000102030406070809FC1A0008C0
:101AE00000000020100000002A1A00080C1B00084B
:101AF00010000020E80400003A1A0008010000006D
:0C1B0000100000000000000000127A003D
:040000050800018965
:00000001FF
